{
  "contractName": "Auth",
  "abi": [
    {
      "inputs": [],
      "name": "recieve",
      "outputs": [],
      "stateMutability": "payable",
      "type": "function",
      "payable": true
    },
    {
      "inputs": [
        {
          "internalType": "bool",
          "name": "request",
          "type": "bool"
        }
      ],
      "name": "getApprovedOrRequestedMember",
      "outputs": [
        {
          "components": [
            {
              "internalType": "string",
              "name": "name",
              "type": "string"
            },
            {
              "internalType": "string",
              "name": "role",
              "type": "string"
            },
            {
              "internalType": "string",
              "name": "email",
              "type": "string"
            },
            {
              "internalType": "address",
              "name": "userAddress",
              "type": "address"
            },
            {
              "internalType": "uint256",
              "name": "power",
              "type": "uint256"
            }
          ],
          "internalType": "struct Auth.MemberStruct[]",
          "name": "",
          "type": "tuple[]"
        }
      ],
      "stateMutability": "view",
      "type": "function",
      "constant": true
    },
    {
      "inputs": [
        {
          "internalType": "string",
          "name": "_name",
          "type": "string"
        },
        {
          "internalType": "string",
          "name": "_role",
          "type": "string"
        },
        {
          "internalType": "string",
          "name": "_email",
          "type": "string"
        },
        {
          "internalType": "address",
          "name": "_userAddress",
          "type": "address"
        },
        {
          "internalType": "bool",
          "name": "request",
          "type": "bool"
        }
      ],
      "name": "addOrRequestMember",
      "outputs": [],
      "stateMutability": "nonpayable",
      "type": "function"
    },
    {
      "inputs": [
        {
          "internalType": "address",
          "name": "_userAddress",
          "type": "address"
        },
        {
          "internalType": "bool",
          "name": "requestedMember",
          "type": "bool"
        }
      ],
      "name": "findMember",
      "outputs": [
        {
          "components": [
            {
              "internalType": "string",
              "name": "name",
              "type": "string"
            },
            {
              "internalType": "string",
              "name": "role",
              "type": "string"
            },
            {
              "internalType": "string",
              "name": "email",
              "type": "string"
            },
            {
              "internalType": "address",
              "name": "userAddress",
              "type": "address"
            },
            {
              "internalType": "uint256",
              "name": "power",
              "type": "uint256"
            }
          ],
          "internalType": "struct Auth.MemberStruct",
          "name": "",
          "type": "tuple"
        }
      ],
      "stateMutability": "view",
      "type": "function",
      "constant": true
    },
    {
      "inputs": [
        {
          "internalType": "address",
          "name": "_userAddress",
          "type": "address"
        },
        {
          "internalType": "address",
          "name": "approvingUserAddress",
          "type": "address"
        }
      ],
      "name": "approoveRequest",
      "outputs": [],
      "stateMutability": "nonpayable",
      "type": "function"
    },
    {
      "inputs": [
        {
          "internalType": "address",
          "name": "_userAddress",
          "type": "address"
        }
      ],
      "name": "denyRequest",
      "outputs": [],
      "stateMutability": "nonpayable",
      "type": "function"
    },
    {
      "inputs": [
        {
          "internalType": "address",
          "name": "_userAddress",
          "type": "address"
        }
      ],
      "name": "memberExistOrNot",
      "outputs": [
        {
          "internalType": "bool",
          "name": "",
          "type": "bool"
        }
      ],
      "stateMutability": "view",
      "type": "function",
      "constant": true
    }
  ],
  "bytecode": "0x608060405260008055600060015534801561001957600080fd5b50613015806100296000396000f3fe6080604052600436106100705760003560e01c8063a9e10bf21161004e578063a9e10bf214610104578063bafa08c11461010e578063e070dd121461014b578063e473f6cd1461017457610070565b80631f2d893a146100755780634cd6f25e1461009e57806364e47536146100c7575b600080fd5b34801561008157600080fd5b5061009c6004803603810190610097919061217e565b6101b1565b005b3480156100aa57600080fd5b506100c560048036038101906100c09190612329565b610457565b005b3480156100d357600080fd5b506100ee60048036038101906100e9919061217e565b610e20565b6040516100fb9190612407565b60405180910390f35b61010c610e8d565b005b34801561011a57600080fd5b5061013560048036038101906101309190612422565b610e8f565b604051610142919061258d565b60405180910390f35b34801561015757600080fd5b50610172600480360381019061016d91906125af565b611373565b005b34801561018057600080fd5b5061019b600480360381019061019691906125ef565b611b71565b6040516101a89190612762565b60405180910390f35b6000600260008373ffffffffffffffffffffffffffffffffffffffff1673ffffffffffffffffffffffffffffffffffffffff1681526020019081526020016000205490506008600160088054905061020991906127b3565b8154811061021a576102196127e7565b5b90600052602060002090600502016008828154811061023c5761023b6127e7565b5b90600052602060002090600502016000820181600001908161025e9190612a38565b50600182018160010190816102739190612a38565b50600282018160020190816102889190612a38565b506003820160009054906101000a900473ffffffffffffffffffffffffffffffffffffffff168160030160006101000a81548173ffffffffffffffffffffffffffffffffffffffff021916908373ffffffffffffffffffffffffffffffffffffffff16021790555060048201548160040155905050806002600060088481548110610316576103156127e7565b5b906000526020600020906005020160030160009054906101000a900473ffffffffffffffffffffffffffffffffffffffff1673ffffffffffffffffffffffffffffffffffffffff1673ffffffffffffffffffffffffffffffffffffffff16815260200190815260200160002081905550600880548061039857610397612b20565b5b6001900381819060005260206000209060050201600080820160006103bd919061206a565b6001820160006103cd919061206a565b6002820160006103dd919061206a565b6003820160006101000a81549073ffffffffffffffffffffffffffffffffffffffff0219169055600482016000905550509055600260008373ffffffffffffffffffffffffffffffffffffffff1673ffffffffffffffffffffffffffffffffffffffff168152602001908152602001600020600090555050565b84600a60000190816104699190612b4f565b5083600a600101908161047c9190612b4f565b5082600a600201908161048f9190612b4f565b5081600a60030160006101000a81548173ffffffffffffffffffffffffffffffffffffffff021916908373ffffffffffffffffffffffffffffffffffffffff1602179055506040516020016104e390612c78565b604051602081830303815290604052805190602001208460405160200161050a9190612cbe565b6040516020818303038152906040528051906020012003610535576001600a60040181905550610667565b60405160200161054490612d21565b604051602081830303815290604052805190602001208460405160200161056b9190612cbe565b6040516020818303038152906040528051906020012003610596576002600a60040181905550610666565b6040516020016105a590612d82565b60405160208183030381529060405280519060200120846040516020016105cc9190612cbe565b60405160208183030381529060405280519060200120036105f7576003600a60040181905550610665565b60405160200161060690612de3565b604051602081830303815290604052805190602001208460405160200161062d9190612cbe565b6040516020818303038152906040528051906020012003610658576004600a60040181905550610664565b6005600a600401819055505b5b5b5b600115158115151480156106c5575060405160200161068590612c78565b60405160208183030381529060405280519060200120846040516020016106ac9190612cbe565b6040516020818303038152906040528051906020012014155b15610a755760001515600960008473ffffffffffffffffffffffffffffffffffffffff1673ffffffffffffffffffffffffffffffffffffffff16815260200190815260200160002060009054906101000a900460ff1615151461075d576040517f08c379a000000000000000000000000000000000000000000000000000000000815260040161075490612e55565b60405180910390fd5b60001515600660008473ffffffffffffffffffffffffffffffffffffffff1673ffffffffffffffffffffffffffffffffffffffff16815260200190815260200160002060009054906101000a900460ff161515146107f0576040517f08c379a00000000000000000000000000000000000000000000000000000000081526004016107e790612ec1565b60405180910390fd5b6008600a9080600181540180825580915050600190039060005260206000209060050201600090919091909150600082018160000190816108319190612a38565b50600182018160010190816108469190612a38565b506002820181600201908161085b9190612a38565b506003820160009054906101000a900473ffffffffffffffffffffffffffffffffffffffff168160030160006101000a81548173ffffffffffffffffffffffffffffffffffffffff021916908373ffffffffffffffffffffffffffffffffffffffff16021790555060048201548160040155505060016008805490506108e191906127b3565b600260008473ffffffffffffffffffffffffffffffffffffffff1673ffffffffffffffffffffffffffffffffffffffff16815260200190815260200160002081905550600a600760008473ffffffffffffffffffffffffffffffffffffffff1673ffffffffffffffffffffffffffffffffffffffff168152602001908152602001600020600082018160000190816109799190612a38565b506001820181600101908161098e9190612a38565b50600282018160020190816109a39190612a38565b506003820160009054906101000a900473ffffffffffffffffffffffffffffffffffffffff168160030160006101000a81548173ffffffffffffffffffffffffffffffffffffffff021916908373ffffffffffffffffffffffffffffffffffffffff160217905550600482015481600401559050506001600960008473ffffffffffffffffffffffffffffffffffffffff1673ffffffffffffffffffffffffffffffffffffffff16815260200190815260200160002060006101000a81548160ff021916908315150217905550610e19565b604051602001610a8490612c78565b6040516020818303038152906040528051906020012084604051602001610aab9190612cbe565b6040516020818303038152906040528051906020012014610b5a5760011515600960008473ffffffffffffffffffffffffffffffffffffffff1673ffffffffffffffffffffffffffffffffffffffff16815260200190815260200160002060009054906101000a900460ff16151514610b59576040517f08c379a0000000000000000000000000000000000000000000000000000000008152600401610b5090612f2d565b60405180910390fd5b5b60001515600660008473ffffffffffffffffffffffffffffffffffffffff1673ffffffffffffffffffffffffffffffffffffffff16815260200190815260200160002060009054906101000a900460ff16151514610bed576040517f08c379a0000000000000000000000000000000000000000000000000000000008152600401610be490612ec1565b60405180910390fd5b6005600a908060018154018082558091505060019003906000526020600020906005020160009091909190915060008201816000019081610c2e9190612a38565b5060018201816001019081610c439190612a38565b5060028201816002019081610c589190612a38565b506003820160009054906101000a900473ffffffffffffffffffffffffffffffffffffffff168160030160006101000a81548173ffffffffffffffffffffffffffffffffffffffff021916908373ffffffffffffffffffffffffffffffffffffffff160217905550600482015481600401555050600a600460008473ffffffffffffffffffffffffffffffffffffffff1673ffffffffffffffffffffffffffffffffffffffff16815260200190815260200160002060008201816000019081610d219190612a38565b5060018201816001019081610d369190612a38565b5060028201816002019081610d4b9190612a38565b506003820160009054906101000a900473ffffffffffffffffffffffffffffffffffffffff168160030160006101000a81548173ffffffffffffffffffffffffffffffffffffffff021916908373ffffffffffffffffffffffffffffffffffffffff160217905550600482015481600401559050506001600660008473ffffffffffffffffffffffffffffffffffffffff1673ffffffffffffffffffffffffffffffffffffffff16815260200190815260200160002060006101000a81548160ff0219169083151502179055505b5050505050565b600060011515600660008473ffffffffffffffffffffffffffffffffffffffff1673ffffffffffffffffffffffffffffffffffffffff16815260200190815260200160002060009054906101000a900460ff16151503610e835760019050610e88565b600090505b919050565b565b610e976120aa565b600115158215150361110a57600760008473ffffffffffffffffffffffffffffffffffffffff1673ffffffffffffffffffffffffffffffffffffffff1681526020019081526020016000206040518060a0016040529081600082018054610efd90612845565b80601f0160208091040260200160405190810160405280929190818152602001828054610f2990612845565b8015610f765780601f10610f4b57610100808354040283529160200191610f76565b820191906000526020600020905b815481529060010190602001808311610f5957829003601f168201915b50505050508152602001600182018054610f8f90612845565b80601f0160208091040260200160405190810160405280929190818152602001828054610fbb90612845565b80156110085780601f10610fdd57610100808354040283529160200191611008565b820191906000526020600020905b815481529060010190602001808311610feb57829003601f168201915b5050505050815260200160028201805461102190612845565b80601f016020809104026020016040519081016040528092919081815260200182805461104d90612845565b801561109a5780601f1061106f5761010080835404028352916020019161109a565b820191906000526020600020905b81548152906001019060200180831161107d57829003601f168201915b505050505081526020016003820160009054906101000a900473ffffffffffffffffffffffffffffffffffffffff1673ffffffffffffffffffffffffffffffffffffffff1673ffffffffffffffffffffffffffffffffffffffff168152602001600482015481525050905061136d565b600460008473ffffffffffffffffffffffffffffffffffffffff1673ffffffffffffffffffffffffffffffffffffffff1681526020019081526020016000206040518060a001604052908160008201805461116490612845565b80601f016020809104026020016040519081016040528092919081815260200182805461119090612845565b80156111dd5780601f106111b2576101008083540402835291602001916111dd565b820191906000526020600020905b8154815290600101906020018083116111c057829003601f168201915b505050505081526020016001820180546111f690612845565b80601f016020809104026020016040519081016040528092919081815260200182805461122290612845565b801561126f5780601f106112445761010080835404028352916020019161126f565b820191906000526020600020905b81548152906001019060200180831161125257829003601f168201915b5050505050815260200160028201805461128890612845565b80601f01602080910402602001604051908101604052809291908181526020018280546112b490612845565b80156113015780601f106112d657610100808354040283529160200191611301565b820191906000526020600020905b8154815290600101906020018083116112e457829003601f168201915b505050505081526020016003820160009054906101000a900473ffffffffffffffffffffffffffffffffffffffff1673ffffffffffffffffffffffffffffffffffffffff1673ffffffffffffffffffffffffffffffffffffffff16815260200160048201548152505090505b92915050565b6000600760008473ffffffffffffffffffffffffffffffffffffffff1673ffffffffffffffffffffffffffffffffffffffff1681526020019081526020016000206040518060a00160405290816000820180546113cf90612845565b80601f01602080910402602001604051908101604052809291908181526020018280546113fb90612845565b80156114485780601f1061141d57610100808354040283529160200191611448565b820191906000526020600020905b81548152906001019060200180831161142b57829003601f168201915b5050505050815260200160018201805461146190612845565b80601f016020809104026020016040519081016040528092919081815260200182805461148d90612845565b80156114da5780601f106114af576101008083540402835291602001916114da565b820191906000526020600020905b8154815290600101906020018083116114bd57829003601f168201915b505050505081526020016002820180546114f390612845565b80601f016020809104026020016040519081016040528092919081815260200182805461151f90612845565b801561156c5780601f106115415761010080835404028352916020019161156c565b820191906000526020600020905b81548152906001019060200180831161154f57829003601f168201915b505050505081526020016003820160009054906101000a900473ffffffffffffffffffffffffffffffffffffffff1673ffffffffffffffffffffffffffffffffffffffff1673ffffffffffffffffffffffffffffffffffffffff16815260200160048201548152505090506000600460008473ffffffffffffffffffffffffffffffffffffffff1673ffffffffffffffffffffffffffffffffffffffff1681526020019081526020016000206040518060a001604052908160008201805461163390612845565b80601f016020809104026020016040519081016040528092919081815260200182805461165f90612845565b80156116ac5780601f10611681576101008083540402835291602001916116ac565b820191906000526020600020905b81548152906001019060200180831161168f57829003601f168201915b505050505081526020016001820180546116c590612845565b80601f01602080910402602001604051908101604052809291908181526020018280546116f190612845565b801561173e5780601f106117135761010080835404028352916020019161173e565b820191906000526020600020905b81548152906001019060200180831161172157829003601f168201915b5050505050815260200160028201805461175790612845565b80601f016020809104026020016040519081016040528092919081815260200182805461178390612845565b80156117d05780601f106117a5576101008083540402835291602001916117d0565b820191906000526020600020905b8154815290600101906020018083116117b357829003601f168201915b505050505081526020016003820160009054906101000a900473ffffffffffffffffffffffffffffffffffffffff1673ffffffffffffffffffffffffffffffffffffffff1673ffffffffffffffffffffffffffffffffffffffff1681526020016004820154815250509050600082604001519050600083602001519050600084600001519050600085606001519050600086608001519050600086608001519050818111156118b4576040517f08c379a00000000000000000000000000000000000000000000000000000000081526004016118ab90612fbf565b60405180910390fd5b6118c2848688866000610457565b6000600260008c73ffffffffffffffffffffffffffffffffffffffff1673ffffffffffffffffffffffffffffffffffffffff1681526020019081526020016000205490506008600160088054905061191a91906127b3565b8154811061192b5761192a6127e7565b5b90600052602060002090600502016008828154811061194d5761194c6127e7565b5b90600052602060002090600502016000820181600001908161196f9190612a38565b50600182018160010190816119849190612a38565b50600282018160020190816119999190612a38565b506003820160009054906101000a900473ffffffffffffffffffffffffffffffffffffffff168160030160006101000a81548173ffffffffffffffffffffffffffffffffffffffff021916908373ffffffffffffffffffffffffffffffffffffffff16021790555060048201548160040155905050806002600060088481548110611a2757611a266127e7565b5b906000526020600020906005020160030160009054906101000a900473ffffffffffffffffffffffffffffffffffffffff1673ffffffffffffffffffffffffffffffffffffffff1673ffffffffffffffffffffffffffffffffffffffff168152602001908152602001600020819055506008805480611aa957611aa8612b20565b5b600190038181906000526020600020906005020160008082016000611ace919061206a565b600182016000611ade919061206a565b600282016000611aee919061206a565b6003820160006101000a81549073ffffffffffffffffffffffffffffffffffffffff0219169055600482016000905550509055600260008c73ffffffffffffffffffffffffffffffffffffffff1673ffffffffffffffffffffffffffffffffffffffff168152602001908152602001600020600090555050505050505050505050565b60606001151582151503611df4576008805480602002602001604051908101604052809291908181526020016000905b82821015611de957838290600052602060002090600502016040518060a0016040529081600082018054611bd490612845565b80601f0160208091040260200160405190810160405280929190818152602001828054611c0090612845565b8015611c4d5780601f10611c2257610100808354040283529160200191611c4d565b820191906000526020600020905b815481529060010190602001808311611c3057829003601f168201915b50505050508152602001600182018054611c6690612845565b80601f0160208091040260200160405190810160405280929190818152602001828054611c9290612845565b8015611cdf5780601f10611cb457610100808354040283529160200191611cdf565b820191906000526020600020905b815481529060010190602001808311611cc257829003601f168201915b50505050508152602001600282018054611cf890612845565b80601f0160208091040260200160405190810160405280929190818152602001828054611d2490612845565b8015611d715780601f10611d4657610100808354040283529160200191611d71565b820191906000526020600020905b815481529060010190602001808311611d5457829003601f168201915b505050505081526020016003820160009054906101000a900473ffffffffffffffffffffffffffffffffffffffff1673ffffffffffffffffffffffffffffffffffffffff1673ffffffffffffffffffffffffffffffffffffffff16815260200160048201548152505081526020019060010190611ba1565b505050509050612065565b6005805480602002602001604051908101604052809291908181526020016000905b8282101561205e57838290600052602060002090600502016040518060a0016040529081600082018054611e4990612845565b80601f0160208091040260200160405190810160405280929190818152602001828054611e7590612845565b8015611ec25780601f10611e9757610100808354040283529160200191611ec2565b820191906000526020600020905b815481529060010190602001808311611ea557829003601f168201915b50505050508152602001600182018054611edb90612845565b80601f0160208091040260200160405190810160405280929190818152602001828054611f0790612845565b8015611f545780601f10611f2957610100808354040283529160200191611f54565b820191906000526020600020905b815481529060010190602001808311611f3757829003601f168201915b50505050508152602001600282018054611f6d90612845565b80601f0160208091040260200160405190810160405280929190818152602001828054611f9990612845565b8015611fe65780601f10611fbb57610100808354040283529160200191611fe6565b820191906000526020600020905b815481529060010190602001808311611fc957829003601f168201915b505050505081526020016003820160009054906101000a900473ffffffffffffffffffffffffffffffffffffffff1673ffffffffffffffffffffffffffffffffffffffff1673ffffffffffffffffffffffffffffffffffffffff16815260200160048201548152505081526020019060010190611e16565b5050505090505b919050565b50805461207690612845565b6000825580601f1061208857506120a7565b601f0160209004906000526020600020908101906120a691906120ef565b5b50565b6040518060a00160405280606081526020016060815260200160608152602001600073ffffffffffffffffffffffffffffffffffffffff168152602001600081525090565b5b808211156121085760008160009055506001016120f0565b5090565b6000604051905090565b600080fd5b600080fd5b600073ffffffffffffffffffffffffffffffffffffffff82169050919050565b600061214b82612120565b9050919050565b61215b81612140565b811461216657600080fd5b50565b60008135905061217881612152565b92915050565b60006020828403121561219457612193612116565b5b60006121a284828501612169565b91505092915050565b600080fd5b600080fd5b6000601f19601f8301169050919050565b7f4e487b7100000000000000000000000000000000000000000000000000000000600052604160045260246000fd5b6121fe826121b5565b810181811067ffffffffffffffff8211171561221d5761221c6121c6565b5b80604052505050565b600061223061210c565b905061223c82826121f5565b919050565b600067ffffffffffffffff82111561225c5761225b6121c6565b5b612265826121b5565b9050602081019050919050565b82818337600083830152505050565b600061229461228f84612241565b612226565b9050828152602081018484840111156122b0576122af6121b0565b5b6122bb848285612272565b509392505050565b600082601f8301126122d8576122d76121ab565b5b81356122e8848260208601612281565b91505092915050565b60008115159050919050565b612306816122f1565b811461231157600080fd5b50565b600081359050612323816122fd565b92915050565b600080600080600060a0868803121561234557612344612116565b5b600086013567ffffffffffffffff8111156123635761236261211b565b5b61236f888289016122c3565b955050602086013567ffffffffffffffff8111156123905761238f61211b565b5b61239c888289016122c3565b945050604086013567ffffffffffffffff8111156123bd576123bc61211b565b5b6123c9888289016122c3565b93505060606123da88828901612169565b92505060806123eb88828901612314565b9150509295509295909350565b612401816122f1565b82525050565b600060208201905061241c60008301846123f8565b92915050565b6000806040838503121561243957612438612116565b5b600061244785828601612169565b925050602061245885828601612314565b9150509250929050565b600081519050919050565b600082825260208201905092915050565b60005b8381101561249c578082015181840152602081019050612481565b60008484015250505050565b60006124b382612462565b6124bd818561246d565b93506124cd81856020860161247e565b6124d6816121b5565b840191505092915050565b6124ea81612140565b82525050565b6000819050919050565b612503816124f0565b82525050565b600060a083016000830151848203600086015261252682826124a8565b9150506020830151848203602086015261254082826124a8565b9150506040830151848203604086015261255a82826124a8565b915050606083015161256f60608601826124e1565b50608083015161258260808601826124fa565b508091505092915050565b600060208201905081810360008301526125a78184612509565b905092915050565b600080604083850312156125c6576125c5612116565b5b60006125d485828601612169565b92505060206125e585828601612169565b9150509250929050565b60006020828403121561260557612604612116565b5b600061261384828501612314565b91505092915050565b600081519050919050565b600082825260208201905092915050565b6000819050602082019050919050565b600060a083016000830151848203600086015261266582826124a8565b9150506020830151848203602086015261267f82826124a8565b9150506040830151848203604086015261269982826124a8565b91505060608301516126ae60608601826124e1565b5060808301516126c160808601826124fa565b508091505092915050565b60006126d88383612648565b905092915050565b6000602082019050919050565b60006126f88261261c565b6127028185612627565b93508360208202850161271485612638565b8060005b85811015612750578484038952815161273185826126cc565b945061273c836126e0565b925060208a01995050600181019050612718565b50829750879550505050505092915050565b6000602082019050818103600083015261277c81846126ed565b905092915050565b7f4e487b7100000000000000000000000000000000000000000000000000000000600052601160045260246000fd5b60006127be826124f0565b91506127c9836124f0565b92508282039050818111156127e1576127e0612784565b5b92915050565b7f4e487b7100000000000000000000000000000000000000000000000000000000600052603260045260246000fd5b7f4e487b7100000000000000000000000000000000000000000000000000000000600052602260045260246000fd5b6000600282049050600182168061285d57607f821691505b6020821081036128705761286f612816565b5b50919050565b60008154905061288581612845565b9050919050565b60008190508160005260206000209050919050565b60006020601f8301049050919050565b600082821b905092915050565b6000600883026128ee7fffffffffffffffffffffffffffffffffffffffffffffffffffffffffffffffff826128b1565b6128f886836128b1565b95508019841693508086168417925050509392505050565b6000819050919050565b600061293561293061292b846124f0565b612910565b6124f0565b9050919050565b6000819050919050565b61294f8361291a565b61296361295b8261293c565b8484546128be565b825550505050565b600090565b61297861296b565b612983818484612946565b505050565b5b818110156129a75761299c600082612970565b600181019050612989565b5050565b601f8211156129ec576129bd8161288c565b6129c6846128a1565b810160208510156129d5578190505b6129e96129e1856128a1565b830182612988565b50505b505050565b600082821c905092915050565b6000612a0f600019846008026129f1565b1980831691505092915050565b6000612a2883836129fe565b9150826002028217905092915050565b818103612a46575050612b1e565b612a4f82612876565b67ffffffffffffffff811115612a6857612a676121c6565b5b612a728254612845565b612a7d8282856129ab565b6000601f831160018114612aac5760008415612a9a578287015490505b612aa48582612a1c565b865550612b17565b601f198416612aba8761288c565b9650612ac58661288c565b60005b82811015612aed57848901548255600182019150600185019450602081019050612ac8565b86831015612b0a5784890154612b06601f8916826129fe565b8355505b6001600288020188555050505b5050505050505b565b7f4e487b7100000000000000000000000000000000000000000000000000000000600052603160045260246000fd5b612b5882612462565b67ffffffffffffffff811115612b7157612b706121c6565b5b612b7b8254612845565b612b868282856129ab565b600060209050601f831160018114612bb95760008415612ba7578287015190505b612bb18582612a1c565b865550612c19565b601f198416612bc78661288c565b60005b82811015612bef57848901518255600182019150602085019450602081019050612bca565b86831015612c0c5784890151612c08601f8916826129fe565b8355505b6001600288020188555050505b505050505050565b600081905092915050565b7f4a4f55524e414c00000000000000000000000000000000000000000000000000600082015250565b6000612c62600783612c21565b9150612c6d82612c2c565b600782019050919050565b6000612c8382612c55565b9150819050919050565b6000612c9882612462565b612ca28185612c21565b9350612cb281856020860161247e565b80840191505092915050565b6000612cca8284612c8d565b915081905092915050565b7f4549430000000000000000000000000000000000000000000000000000000000600082015250565b6000612d0b600383612c21565b9150612d1682612cd5565b600382019050919050565b6000612d2c82612cfe565b9150819050919050565b7f4145000000000000000000000000000000000000000000000000000000000000600082015250565b6000612d6c600283612c21565b9150612d7782612d36565b600282019050919050565b6000612d8d82612d5f565b9150819050919050565b7f5245564945574552000000000000000000000000000000000000000000000000600082015250565b6000612dcd600883612c21565b9150612dd882612d97565b600882019050919050565b6000612dee82612dc0565b9150819050919050565b600082825260208201905092915050565b7f4d656d6265722052657175657374656420416c72656164792121000000000000600082015250565b6000612e3f601a83612df8565b9150612e4a82612e09565b602082019050919050565b60006020820190508181036000830152612e6e81612e32565b9050919050565b7f4d656d62657220457869737420416c7265616479212100000000000000000000600082015250565b6000612eab601683612df8565b9150612eb682612e75565b602082019050919050565b60006020820190508181036000830152612eda81612e9e565b9050919050565b7f596f75206e65656420746f205265717565737420466972737400000000000000600082015250565b6000612f17601983612df8565b9150612f2282612ee1565b602082019050919050565b60006020820190508181036000830152612f4681612f0a565b9050919050565b7f596f752063616e277420617070726f6f766520736f6d656f6e652061626f766560008201527f207468616e20796f752e00000000000000000000000000000000000000000000602082015250565b6000612fa9602a83612df8565b9150612fb482612f4d565b604082019050919050565b60006020820190508181036000830152612fd881612f9c565b905091905056fea2646970667358221220ee07d11c02904eac4144e7a2600a982c66188836df133881a787284c45b55ea464736f6c63430008130033",
  "immutableReferences": {},
  "source": "// SPDX-License-Identifier: LGPL v3.0\npragma solidity ^0.8.7;\n\ncontract Auth {\n    function recieve() external payable {}\n\n    // ----------------------------------------------- MEMBER - REQUEST, APPROVE, ADD --------------------------------------------------\n\n    // Member Structure\n    struct MemberStruct {\n        string name;\n        string role;\n        string email;\n        address userAddress;\n        uint256 power;\n    }\n\n    // Indexes to manage the requested or approved entities\n    uint256 requestIndex = 0;\n    uint256 memberIndex = 0;\n\n    // Mapping indexes with a particular useraddresses\n    mapping(address => uint256) indexFromRequest;\n    mapping(address => uint256) indexFromApproove;\n\n    // For Approved Members\n    mapping(address => MemberStruct) getMemberWithAddress;\n    MemberStruct[] arrayOfMembers;\n    mapping(address => bool) memberExist;\n\n    // For Requested Members\n    mapping(address => MemberStruct) getRequestedMemberWithAddress;\n    MemberStruct[] arrayOfRequestedMembers;\n    mapping(address => bool) memberRequested;\n\n    // For getting the info of members(true = requested member info and  false = approoved member info)\n    function getApprovedOrRequestedMember(bool request)\n        public\n        view\n        returns (MemberStruct[] memory)\n    {\n        if (request == true) {\n            return arrayOfRequestedMembers;\n        } else {\n            return arrayOfMembers;\n        }\n    }\n\n    // instance of the struct to use everywhere\n    MemberStruct instanceOfMemberStruct;\n\n    // function to add or request member (true = request member | false = directly add member | Journal will be directly added as a member)\n    function addOrRequestMember(\n        string memory _name,\n        string memory _role,\n        string memory _email,\n        address _userAddress,\n        bool request\n    ) public {\n\n        instanceOfMemberStruct.name = _name;\n        instanceOfMemberStruct.role = _role;\n        instanceOfMemberStruct.email = _email;\n        instanceOfMemberStruct.userAddress = _userAddress;\n\n        // deciding power based on type\n        if (\n            keccak256(abi.encodePacked(_role)) ==\n            keccak256(abi.encodePacked(\"JOURNAL\"))\n        ) {\n            instanceOfMemberStruct.power = 1;\n        } else if (\n            keccak256(abi.encodePacked(_role)) ==\n            keccak256(abi.encodePacked(\"EIC\"))\n        ) {\n            instanceOfMemberStruct.power = 2;\n        } else if (\n            keccak256(abi.encodePacked(_role)) ==\n            keccak256(abi.encodePacked(\"AE\"))\n        ) {\n            instanceOfMemberStruct.power = 3;\n        } else if (\n            keccak256(abi.encodePacked(_role)) ==\n            keccak256(abi.encodePacked(\"REVIEWER\"))\n        ) {\n            instanceOfMemberStruct.power = 4;\n        } else {\n            instanceOfMemberStruct.power = 5;\n        }\n\n        // if not Journal\n\n        if (\n            request == true &&\n            keccak256(abi.encodePacked(_role)) !=\n            keccak256(abi.encodePacked(\"JOURNAL\"))\n        ) {\n            // some require checks here\n            require(memberRequested[_userAddress] == false, \"Member Requested Already!!\");\n            require(memberExist[_userAddress] == false, \"Member Exist Already!!\");\n\n            // add it to the requested member data structure\n            arrayOfRequestedMembers.push(instanceOfMemberStruct);\n            indexFromRequest[_userAddress] = arrayOfRequestedMembers.length - 1;\n\n            getRequestedMemberWithAddress[\n                _userAddress\n            ] = instanceOfMemberStruct;\n            memberRequested[_userAddress] = true;\n        }\n        // if Journal\n        else {\n            if (\n                keccak256(abi.encodePacked(_role)) !=\n                keccak256(abi.encodePacked(\"JOURNAL\"))\n            ) {\n                // some require checks here\n                require(\n                    memberRequested[_userAddress] == true,\n                    \"You need to Request First\"\n                );\n            }\n\n            require(memberExist[_userAddress] == false, \"Member Exist Already!!\");\n\n            // add it to the approved member data structure\n            arrayOfMembers.push(instanceOfMemberStruct);\n            getMemberWithAddress[_userAddress] = instanceOfMemberStruct;\n            memberExist[_userAddress] = true;\n        }\n    }\n\n    // to find member using address (true = find from requested members | false = find from approoved members)\n    function findMember(address _userAddress, bool requestedMember)\n        public\n        view\n        returns (MemberStruct memory)\n    {\n        if (requestedMember == true) {\n            return getRequestedMemberWithAddress[_userAddress];\n        } else {\n            return getMemberWithAddress[_userAddress];\n        }\n    }\n\n    // function to approove request\n    function approoveRequest(address _userAddress, address approvingUserAddress)\n        public\n    {\n        MemberStruct memory memberTobeApproved = getRequestedMemberWithAddress[\n            _userAddress\n        ];\n        MemberStruct memory approvingMember = getMemberWithAddress[\n            approvingUserAddress\n        ];\n        string memory email = memberTobeApproved.email;\n        string memory role = memberTobeApproved.role;\n        string memory name = memberTobeApproved.name;\n        \n        address userAddress = memberTobeApproved.userAddress;\n        uint256 requestingUserPower = memberTobeApproved.power;\n        uint256 approvingUserPower = approvingMember.power;\n \n        require(\n            approvingUserPower <= requestingUserPower,\n            \"You can't approove someone above than you.\"\n        );\n\n        // adding member using add member function | the difference is we're not using true here\n        addOrRequestMember(name, role, email, userAddress, false);\n\n        // need to remove entry from request array\n        uint256 index = indexFromRequest[_userAddress];\n        arrayOfRequestedMembers[index] = arrayOfRequestedMembers[arrayOfRequestedMembers.length - 1];\n        indexFromRequest[arrayOfRequestedMembers[index].userAddress] = index;\n        arrayOfRequestedMembers.pop();\n        delete indexFromRequest[_userAddress];\n    }\n\n    function denyRequest(address _userAddress) public {\n        uint256 index = indexFromRequest[_userAddress];\n        arrayOfRequestedMembers[index] = arrayOfRequestedMembers[arrayOfRequestedMembers.length - 1];\n        indexFromRequest[arrayOfRequestedMembers[index].userAddress] = index;\n        arrayOfRequestedMembers.pop();\n        delete indexFromRequest[_userAddress];\n    }\n\n    // Function to know if member exist or not - will be useful in login and other features\n    function memberExistOrNot(address _userAddress) public view returns (bool) {\n        if ((memberExist[_userAddress] == true)) {\n            return true;\n        } else {\n            return false;\n        }\n    }\n}",
  "sourcePath": "/Users/rushiksoni/Desktop/blockchain-based-decentralized-research-publishing-system/contracts/auth.sol",
  "compiler": {
    "name": "solc",
    "version": "0.8.19+commit.7dd6d404.Emscripten.clang"
  },
  "schemaVersion": "3.4.14",
  "updatedAt": "2023-06-30T17:03:37.690Z",
  "networkType": "ethereum",
  "devdoc": {
    "kind": "dev",
    "methods": {},
    "version": 1
  },
  "userdoc": {
    "kind": "user",
    "methods": {},
    "version": 1
  }
}