{
  "contractName": "Decision",
  "abi": [
    {
      "inputs": [
        {
          "internalType": "string",
          "name": "_name",
          "type": "string"
        },
        {
          "internalType": "string",
          "name": "_email",
          "type": "string"
        },
        {
          "internalType": "string",
          "name": "_abstractofpaper",
          "type": "string"
        },
        {
          "internalType": "string",
          "name": "_papertitle",
          "type": "string"
        },
        {
          "internalType": "string",
          "name": "_linkofpaper",
          "type": "string"
        },
        {
          "internalType": "string",
          "name": "_reviewofreviewer",
          "type": "string"
        },
        {
          "internalType": "string",
          "name": "_reviewofAE",
          "type": "string"
        },
        {
          "internalType": "address",
          "name": "_authorAddress",
          "type": "address"
        }
      ],
      "name": "getPaperInfo",
      "outputs": [],
      "stateMutability": "nonpayable",
      "type": "function"
    },
    {
      "inputs": [],
      "name": "RerecievedByEIC",
      "outputs": [
        {
          "components": [
            {
              "internalType": "string",
              "name": "name",
              "type": "string"
            },
            {
              "internalType": "string",
              "name": "email",
              "type": "string"
            },
            {
              "internalType": "string",
              "name": "abstractofpaper",
              "type": "string"
            },
            {
              "internalType": "string",
              "name": "papertitle",
              "type": "string"
            },
            {
              "internalType": "string",
              "name": "linkofpaper",
              "type": "string"
            },
            {
              "internalType": "address",
              "name": "authorAddress",
              "type": "address"
            },
            {
              "internalType": "string",
              "name": "reviewofreviewer",
              "type": "string"
            },
            {
              "internalType": "string",
              "name": "reviewofAE",
              "type": "string"
            },
            {
              "internalType": "string",
              "name": "messagetoauthor",
              "type": "string"
            }
          ],
          "internalType": "struct Decision.PaperStruct[]",
          "name": "",
          "type": "tuple[]"
        }
      ],
      "stateMutability": "view",
      "type": "function",
      "constant": true
    },
    {
      "inputs": [
        {
          "internalType": "bool",
          "name": "_Decision",
          "type": "bool"
        },
        {
          "internalType": "string",
          "name": "_MessageToAuthor",
          "type": "string"
        }
      ],
      "name": "EICDecision",
      "outputs": [],
      "stateMutability": "nonpayable",
      "type": "function"
    },
    {
      "inputs": [],
      "name": "getPublishedpaper",
      "outputs": [
        {
          "components": [
            {
              "internalType": "string",
              "name": "name",
              "type": "string"
            },
            {
              "internalType": "string",
              "name": "email",
              "type": "string"
            },
            {
              "internalType": "string",
              "name": "abstractofpaper",
              "type": "string"
            },
            {
              "internalType": "string",
              "name": "papertitle",
              "type": "string"
            },
            {
              "internalType": "string",
              "name": "linkofpaper",
              "type": "string"
            },
            {
              "internalType": "address",
              "name": "authorAddress",
              "type": "address"
            },
            {
              "internalType": "string",
              "name": "reviewofreviewer",
              "type": "string"
            },
            {
              "internalType": "string",
              "name": "reviewofAE",
              "type": "string"
            },
            {
              "internalType": "string",
              "name": "messagetoauthor",
              "type": "string"
            }
          ],
          "internalType": "struct Decision.PaperStruct[]",
          "name": "",
          "type": "tuple[]"
        }
      ],
      "stateMutability": "view",
      "type": "function",
      "constant": true
    },
    {
      "inputs": [],
      "name": "Returntoauthor",
      "outputs": [
        {
          "components": [
            {
              "internalType": "string",
              "name": "name",
              "type": "string"
            },
            {
              "internalType": "string",
              "name": "email",
              "type": "string"
            },
            {
              "internalType": "string",
              "name": "abstractofpaper",
              "type": "string"
            },
            {
              "internalType": "string",
              "name": "papertitle",
              "type": "string"
            },
            {
              "internalType": "string",
              "name": "linkofpaper",
              "type": "string"
            },
            {
              "internalType": "address",
              "name": "authorAddress",
              "type": "address"
            },
            {
              "internalType": "string",
              "name": "reviewofreviewer",
              "type": "string"
            },
            {
              "internalType": "string",
              "name": "reviewofAE",
              "type": "string"
            },
            {
              "internalType": "string",
              "name": "messagetoauthor",
              "type": "string"
            }
          ],
          "internalType": "struct Decision.PaperStruct[]",
          "name": "",
          "type": "tuple[]"
        }
      ],
      "stateMutability": "view",
      "type": "function",
      "constant": true
    }
  ],
  "bytecode": "0x608060405234801561001057600080fd5b5061232d806100206000396000f3fe608060405234801561001057600080fd5b50600436106100575760003560e01c80638b0e09281461005c578063a1452dbb1461007a578063a2b5ebd914610096578063b207ae86146100b4578063b333206c146100d0575b600080fd5b6100646100ee565b6040516100719190611b3d565b60405180910390f35b610094600480360381019061008f9190611ce0565b610634565b005b61009e610bbb565b6040516100ab9190611b3d565b60405180910390f35b6100ce60048036038101906100c99190611d68565b611101565b005b6100d8611311565b6040516100e59190611b3d565b60405180910390f35b6060600b805480602002602001604051908101604052809291908181526020016000905b8282101561062b57838290600052602060002090600902016040518061012001604052908160008201805461014690611f11565b80601f016020809104026020016040519081016040528092919081815260200182805461017290611f11565b80156101bf5780601f10610194576101008083540402835291602001916101bf565b820191906000526020600020905b8154815290600101906020018083116101a257829003601f168201915b505050505081526020016001820180546101d890611f11565b80601f016020809104026020016040519081016040528092919081815260200182805461020490611f11565b80156102515780601f1061022657610100808354040283529160200191610251565b820191906000526020600020905b81548152906001019060200180831161023457829003601f168201915b5050505050815260200160028201805461026a90611f11565b80601f016020809104026020016040519081016040528092919081815260200182805461029690611f11565b80156102e35780601f106102b8576101008083540402835291602001916102e3565b820191906000526020600020905b8154815290600101906020018083116102c657829003601f168201915b505050505081526020016003820180546102fc90611f11565b80601f016020809104026020016040519081016040528092919081815260200182805461032890611f11565b80156103755780601f1061034a57610100808354040283529160200191610375565b820191906000526020600020905b81548152906001019060200180831161035857829003601f168201915b5050505050815260200160048201805461038e90611f11565b80601f01602080910402602001604051908101604052809291908181526020018280546103ba90611f11565b80156104075780601f106103dc57610100808354040283529160200191610407565b820191906000526020600020905b8154815290600101906020018083116103ea57829003601f168201915b505050505081526020016005820160009054906101000a900473ffffffffffffffffffffffffffffffffffffffff1673ffffffffffffffffffffffffffffffffffffffff1673ffffffffffffffffffffffffffffffffffffffff16815260200160068201805461047690611f11565b80601f01602080910402602001604051908101604052809291908181526020018280546104a290611f11565b80156104ef5780601f106104c4576101008083540402835291602001916104ef565b820191906000526020600020905b8154815290600101906020018083116104d257829003601f168201915b5050505050815260200160078201805461050890611f11565b80601f016020809104026020016040519081016040528092919081815260200182805461053490611f11565b80156105815780601f1061055657610100808354040283529160200191610581565b820191906000526020600020905b81548152906001019060200180831161056457829003601f168201915b5050505050815260200160088201805461059a90611f11565b80601f01602080910402602001604051908101604052809291908181526020018280546105c690611f11565b80156106135780601f106105e857610100808354040283529160200191610613565b820191906000526020600020905b8154815290600101906020018083116105f657829003601f168201915b50505050508152505081526020019060010190610112565b50505050905090565b806000600801908161064691906120f8565b5060011515821515036109a6576009600090806001815401808255809150506001900390600052602060002090600902016000909190919091506000820181600001908161069491906121e0565b50600182018160010190816106a991906121e0565b50600282018160020190816106be91906121e0565b50600382018160030190816106d391906121e0565b50600482018160040190816106e891906121e0565b506005820160009054906101000a900473ffffffffffffffffffffffffffffffffffffffff168160050160006101000a81548173ffffffffffffffffffffffffffffffffffffffff021916908373ffffffffffffffffffffffffffffffffffffffff1602179055506006820181600601908161076491906121e0565b506007820181600701908161077991906121e0565b506008820181600801908161078e91906121e0565b505050600a60009080600181540180825580915050600190039060005260206000209060090201600090919091909150600082018160000190816107d291906121e0565b50600182018160010190816107e791906121e0565b50600282018160020190816107fc91906121e0565b506003820181600301908161081191906121e0565b506004820181600401908161082691906121e0565b506005820160009054906101000a900473ffffffffffffffffffffffffffffffffffffffff168160050160006101000a81548173ffffffffffffffffffffffffffffffffffffffff021916908373ffffffffffffffffffffffffffffffffffffffff160217905550600682018160060190816108a291906121e0565b50600782018160070190816108b791906121e0565b50600882018160080190816108cc91906121e0565b505050600b8054806108e1576108e06122c8565b5b6001900381819060005260206000209060090201600080820160006109069190611857565b6001820160006109169190611857565b6002820160006109269190611857565b6003820160006109369190611857565b6004820160006109469190611857565b6005820160006101000a81549073ffffffffffffffffffffffffffffffffffffffff021916905560068201600061097d9190611857565b60078201600061098d9190611857565b60088201600061099d9190611857565b50509055610bb7565b600a60009080600181540180825580915050600190039060005260206000209060090201600090919091909150600082018160000190816109e791906121e0565b50600182018160010190816109fc91906121e0565b5060028201816002019081610a1191906121e0565b5060038201816003019081610a2691906121e0565b5060048201816004019081610a3b91906121e0565b506005820160009054906101000a900473ffffffffffffffffffffffffffffffffffffffff168160050160006101000a81548173ffffffffffffffffffffffffffffffffffffffff021916908373ffffffffffffffffffffffffffffffffffffffff16021790555060068201816006019081610ab791906121e0565b5060078201816007019081610acc91906121e0565b5060088201816008019081610ae191906121e0565b505050600b805480610af657610af56122c8565b5b600190038181906000526020600020906009020160008082016000610b1b9190611857565b600182016000610b2b9190611857565b600282016000610b3b9190611857565b600382016000610b4b9190611857565b600482016000610b5b9190611857565b6005820160006101000a81549073ffffffffffffffffffffffffffffffffffffffff0219169055600682016000610b929190611857565b600782016000610ba29190611857565b600882016000610bb29190611857565b505090555b5050565b60606009805480602002602001604051908101604052809291908181526020016000905b828210156110f8578382906000526020600020906009020160405180610120016040529081600082018054610c1390611f11565b80601f0160208091040260200160405190810160405280929190818152602001828054610c3f90611f11565b8015610c8c5780601f10610c6157610100808354040283529160200191610c8c565b820191906000526020600020905b815481529060010190602001808311610c6f57829003601f168201915b50505050508152602001600182018054610ca590611f11565b80601f0160208091040260200160405190810160405280929190818152602001828054610cd190611f11565b8015610d1e5780601f10610cf357610100808354040283529160200191610d1e565b820191906000526020600020905b815481529060010190602001808311610d0157829003601f168201915b50505050508152602001600282018054610d3790611f11565b80601f0160208091040260200160405190810160405280929190818152602001828054610d6390611f11565b8015610db05780601f10610d8557610100808354040283529160200191610db0565b820191906000526020600020905b815481529060010190602001808311610d9357829003601f168201915b50505050508152602001600382018054610dc990611f11565b80601f0160208091040260200160405190810160405280929190818152602001828054610df590611f11565b8015610e425780601f10610e1757610100808354040283529160200191610e42565b820191906000526020600020905b815481529060010190602001808311610e2557829003601f168201915b50505050508152602001600482018054610e5b90611f11565b80601f0160208091040260200160405190810160405280929190818152602001828054610e8790611f11565b8015610ed45780601f10610ea957610100808354040283529160200191610ed4565b820191906000526020600020905b815481529060010190602001808311610eb757829003601f168201915b505050505081526020016005820160009054906101000a900473ffffffffffffffffffffffffffffffffffffffff1673ffffffffffffffffffffffffffffffffffffffff1673ffffffffffffffffffffffffffffffffffffffff168152602001600682018054610f4390611f11565b80601f0160208091040260200160405190810160405280929190818152602001828054610f6f90611f11565b8015610fbc5780601f10610f9157610100808354040283529160200191610fbc565b820191906000526020600020905b815481529060010190602001808311610f9f57829003601f168201915b50505050508152602001600782018054610fd590611f11565b80601f016020809104026020016040519081016040528092919081815260200182805461100190611f11565b801561104e5780601f106110235761010080835404028352916020019161104e565b820191906000526020600020905b81548152906001019060200180831161103157829003601f168201915b5050505050815260200160088201805461106790611f11565b80601f016020809104026020016040519081016040528092919081815260200182805461109390611f11565b80156110e05780601f106110b5576101008083540402835291602001916110e0565b820191906000526020600020905b8154815290600101906020018083116110c357829003601f168201915b50505050508152505081526020019060010190610bdf565b50505050905090565b8760008001908161111291906120f8565b50866000600101908161112591906120f8565b50856000600201908161113891906120f8565b50846000600301908161114b91906120f8565b50836000600401908161115e91906120f8565b5080600060050160006101000a81548173ffffffffffffffffffffffffffffffffffffffff021916908373ffffffffffffffffffffffffffffffffffffffff16021790555082600060060190816111b591906120f8565b5081600060070190816111c891906120f8565b50600b600090806001815401808255809150506001900390600052602060002090600902016000909190919091506000820181600001908161120a91906121e0565b506001820181600101908161121f91906121e0565b506002820181600201908161123491906121e0565b506003820181600301908161124991906121e0565b506004820181600401908161125e91906121e0565b506005820160009054906101000a900473ffffffffffffffffffffffffffffffffffffffff168160050160006101000a81548173ffffffffffffffffffffffffffffffffffffffff021916908373ffffffffffffffffffffffffffffffffffffffff160217905550600682018160060190816112da91906121e0565b50600782018160070190816112ef91906121e0565b506008820181600801908161130491906121e0565b5050505050505050505050565b6060600a805480602002602001604051908101604052809291908181526020016000905b8282101561184e57838290600052602060002090600902016040518061012001604052908160008201805461136990611f11565b80601f016020809104026020016040519081016040528092919081815260200182805461139590611f11565b80156113e25780601f106113b7576101008083540402835291602001916113e2565b820191906000526020600020905b8154815290600101906020018083116113c557829003601f168201915b505050505081526020016001820180546113fb90611f11565b80601f016020809104026020016040519081016040528092919081815260200182805461142790611f11565b80156114745780601f1061144957610100808354040283529160200191611474565b820191906000526020600020905b81548152906001019060200180831161145757829003601f168201915b5050505050815260200160028201805461148d90611f11565b80601f01602080910402602001604051908101604052809291908181526020018280546114b990611f11565b80156115065780601f106114db57610100808354040283529160200191611506565b820191906000526020600020905b8154815290600101906020018083116114e957829003601f168201915b5050505050815260200160038201805461151f90611f11565b80601f016020809104026020016040519081016040528092919081815260200182805461154b90611f11565b80156115985780601f1061156d57610100808354040283529160200191611598565b820191906000526020600020905b81548152906001019060200180831161157b57829003601f168201915b505050505081526020016004820180546115b190611f11565b80601f01602080910402602001604051908101604052809291908181526020018280546115dd90611f11565b801561162a5780601f106115ff5761010080835404028352916020019161162a565b820191906000526020600020905b81548152906001019060200180831161160d57829003601f168201915b505050505081526020016005820160009054906101000a900473ffffffffffffffffffffffffffffffffffffffff1673ffffffffffffffffffffffffffffffffffffffff1673ffffffffffffffffffffffffffffffffffffffff16815260200160068201805461169990611f11565b80601f01602080910402602001604051908101604052809291908181526020018280546116c590611f11565b80156117125780601f106116e757610100808354040283529160200191611712565b820191906000526020600020905b8154815290600101906020018083116116f557829003601f168201915b5050505050815260200160078201805461172b90611f11565b80601f016020809104026020016040519081016040528092919081815260200182805461175790611f11565b80156117a45780601f10611779576101008083540402835291602001916117a4565b820191906000526020600020905b81548152906001019060200180831161178757829003601f168201915b505050505081526020016008820180546117bd90611f11565b80601f01602080910402602001604051908101604052809291908181526020018280546117e990611f11565b80156118365780601f1061180b57610100808354040283529160200191611836565b820191906000526020600020905b81548152906001019060200180831161181957829003601f168201915b50505050508152505081526020019060010190611335565b50505050905090565b50805461186390611f11565b6000825580601f106118755750611894565b601f0160209004906000526020600020908101906118939190611897565b5b50565b5b808211156118b0576000816000905550600101611898565b5090565b600081519050919050565b600082825260208201905092915050565b6000819050602082019050919050565b600081519050919050565b600082825260208201905092915050565b60005b8381101561191a5780820151818401526020810190506118ff565b60008484015250505050565b6000601f19601f8301169050919050565b6000611942826118e0565b61194c81856118eb565b935061195c8185602086016118fc565b61196581611926565b840191505092915050565b600073ffffffffffffffffffffffffffffffffffffffff82169050919050565b600061199b82611970565b9050919050565b6119ab81611990565b82525050565b60006101208301600083015184820360008601526119cf8282611937565b915050602083015184820360208601526119e98282611937565b91505060408301518482036040860152611a038282611937565b91505060608301518482036060860152611a1d8282611937565b91505060808301518482036080860152611a378282611937565b91505060a0830151611a4c60a08601826119a2565b5060c083015184820360c0860152611a648282611937565b91505060e083015184820360e0860152611a7e8282611937565b915050610100830151848203610100860152611a9a8282611937565b9150508091505092915050565b6000611ab383836119b1565b905092915050565b6000602082019050919050565b6000611ad3826118b4565b611add81856118bf565b935083602082028501611aef856118d0565b8060005b85811015611b2b5784840389528151611b0c8582611aa7565b9450611b1783611abb565b925060208a01995050600181019050611af3565b50829750879550505050505092915050565b60006020820190508181036000830152611b578184611ac8565b905092915050565b6000604051905090565b600080fd5b600080fd5b60008115159050919050565b611b8881611b73565b8114611b9357600080fd5b50565b600081359050611ba581611b7f565b92915050565b600080fd5b600080fd5b7f4e487b7100000000000000000000000000000000000000000000000000000000600052604160045260246000fd5b611bed82611926565b810181811067ffffffffffffffff82111715611c0c57611c0b611bb5565b5b80604052505050565b6000611c1f611b5f565b9050611c2b8282611be4565b919050565b600067ffffffffffffffff821115611c4b57611c4a611bb5565b5b611c5482611926565b9050602081019050919050565b82818337600083830152505050565b6000611c83611c7e84611c30565b611c15565b905082815260208101848484011115611c9f57611c9e611bb0565b5b611caa848285611c61565b509392505050565b600082601f830112611cc757611cc6611bab565b5b8135611cd7848260208601611c70565b91505092915050565b60008060408385031215611cf757611cf6611b69565b5b6000611d0585828601611b96565b925050602083013567ffffffffffffffff811115611d2657611d25611b6e565b5b611d3285828601611cb2565b9150509250929050565b611d4581611990565b8114611d5057600080fd5b50565b600081359050611d6281611d3c565b92915050565b600080600080600080600080610100898b031215611d8957611d88611b69565b5b600089013567ffffffffffffffff811115611da757611da6611b6e565b5b611db38b828c01611cb2565b985050602089013567ffffffffffffffff811115611dd457611dd3611b6e565b5b611de08b828c01611cb2565b975050604089013567ffffffffffffffff811115611e0157611e00611b6e565b5b611e0d8b828c01611cb2565b965050606089013567ffffffffffffffff811115611e2e57611e2d611b6e565b5b611e3a8b828c01611cb2565b955050608089013567ffffffffffffffff811115611e5b57611e5a611b6e565b5b611e678b828c01611cb2565b94505060a089013567ffffffffffffffff811115611e8857611e87611b6e565b5b611e948b828c01611cb2565b93505060c089013567ffffffffffffffff811115611eb557611eb4611b6e565b5b611ec18b828c01611cb2565b92505060e0611ed28b828c01611d53565b9150509295985092959890939650565b7f4e487b7100000000000000000000000000000000000000000000000000000000600052602260045260246000fd5b60006002820490506001821680611f2957607f821691505b602082108103611f3c57611f3b611ee2565b5b50919050565b60008190508160005260206000209050919050565b60006020601f8301049050919050565b600082821b905092915050565b600060088302611fa47fffffffffffffffffffffffffffffffffffffffffffffffffffffffffffffffff82611f67565b611fae8683611f67565b95508019841693508086168417925050509392505050565b6000819050919050565b6000819050919050565b6000611ff5611ff0611feb84611fc6565b611fd0565b611fc6565b9050919050565b6000819050919050565b61200f83611fda565b61202361201b82611ffc565b848454611f74565b825550505050565b600090565b61203861202b565b612043818484612006565b505050565b5b818110156120675761205c600082612030565b600181019050612049565b5050565b601f8211156120ac5761207d81611f42565b61208684611f57565b81016020851015612095578190505b6120a96120a185611f57565b830182612048565b50505b505050565b600082821c905092915050565b60006120cf600019846008026120b1565b1980831691505092915050565b60006120e883836120be565b9150826002028217905092915050565b612101826118e0565b67ffffffffffffffff81111561211a57612119611bb5565b5b6121248254611f11565b61212f82828561206b565b600060209050601f8311600181146121625760008415612150578287015190505b61215a85826120dc565b8655506121c2565b601f19841661217086611f42565b60005b8281101561219857848901518255600182019150602085019450602081019050612173565b868310156121b557848901516121b1601f8916826120be565b8355505b6001600288020188555050505b505050505050565b6000815490506121d981611f11565b9050919050565b8181036121ee5750506122c6565b6121f7826121ca565b67ffffffffffffffff8111156122105761220f611bb5565b5b61221a8254611f11565b61222582828561206b565b6000601f8311600181146122545760008415612242578287015490505b61224c85826120dc565b8655506122bf565b601f19841661226287611f42565b965061226d86611f42565b60005b8281101561229557848901548255600182019150600185019450602081019050612270565b868310156122b257848901546122ae601f8916826120be565b8355505b6001600288020188555050505b5050505050505b565b7f4e487b7100000000000000000000000000000000000000000000000000000000600052603160045260246000fdfea2646970667358221220d7ce9a1ec5550fefe051ed645877e95597029720f93b392e2fcabe48f6a5f85064736f6c63430008130033",
  "immutableReferences": {},
  "source": "// SPDX-License-Identifier: LGPL v3.0\npragma solidity ^0.8.7;\n\ncontract Decision {\n\n// Paper Structure\n     struct PaperStruct{\n        string name;\n        string email;\n        string abstractofpaper;\n        string papertitle;\n        string linkofpaper;\n        address authorAddress;\n        string reviewofreviewer;\n        string reviewofAE;\n        string messagetoauthor;\n    }\n\n// instance of paper struct to use it everywhere\n    PaperStruct instanceofPaperStruct;\n\n// for manage published papers\n    PaperStruct[] Publishpaper;\n    PaperStruct[] ReturnAuthor;\n    PaperStruct[] RreceivedByEIC;\n\n// getting paper's information\n    function getPaperInfo(string memory _name, string memory _email, string memory _abstractofpaper, string memory _papertitle, string memory _linkofpaper,string memory _reviewofreviewer, string memory _reviewofAE, address _authorAddress) public {\n        instanceofPaperStruct.name = _name;\n        instanceofPaperStruct.email = _email;\n        instanceofPaperStruct.abstractofpaper = _abstractofpaper;\n        instanceofPaperStruct.papertitle = _papertitle;\n        instanceofPaperStruct.linkofpaper = _linkofpaper;\n        instanceofPaperStruct.authorAddress = _authorAddress;\n        instanceofPaperStruct.reviewofreviewer = _reviewofreviewer;\n        instanceofPaperStruct.reviewofAE = _reviewofAE;\n        RreceivedByEIC.push(instanceofPaperStruct);\n\n    }\n\n// for receive papers to the EIC\n    function RerecievedByEIC() public view returns(PaperStruct[] memory) {\n        return RreceivedByEIC;\n    }\n\n// For getting decision of EIC\n    function EICDecision(bool _Decision, string memory _MessageToAuthor) public {\n        instanceofPaperStruct.messagetoauthor = _MessageToAuthor;\n        if (_Decision == true) {\n            Publishpaper.push(instanceofPaperStruct);\n            ReturnAuthor.push(instanceofPaperStruct);\n            RreceivedByEIC.pop();\n        } else {\n            ReturnAuthor.push(instanceofPaperStruct);\n            RreceivedByEIC.pop();\n\n        }\n    }\n\n\n    // For getting published papers\n   \n   function getPublishedpaper() public view returns(PaperStruct[] memory) {\n       return Publishpaper;\n   }\n\n// For return paper to the author\n   function Returntoauthor() public view returns(PaperStruct[] memory) {\n       return ReturnAuthor;\n   }\n\n}",
  "sourcePath": "/Users/rushiksoni/Desktop/blockchain-based-decentralized-research-publishing-system/contracts/Decision.sol",
  "compiler": {
    "name": "solc",
    "version": "0.8.19+commit.7dd6d404.Emscripten.clang"
  },
  "schemaVersion": "3.4.14",
  "updatedAt": "2023-06-30T17:03:37.904Z",
  "networkType": "ethereum",
  "devdoc": {
    "kind": "dev",
    "methods": {},
    "version": 1
  },
  "userdoc": {
    "kind": "user",
    "methods": {},
    "version": 1
  }
}