{
  "contractName": "Main",
  "abi": [
    {
      "inputs": [
        {
          "internalType": "string",
          "name": "_name",
          "type": "string"
        },
        {
          "internalType": "string",
          "name": "_email",
          "type": "string"
        },
        {
          "internalType": "string",
          "name": "_abstractofpaper",
          "type": "string"
        },
        {
          "internalType": "string",
          "name": "_papertitle",
          "type": "string"
        },
        {
          "internalType": "string",
          "name": "_linkofpaper",
          "type": "string"
        },
        {
          "internalType": "address",
          "name": "_authorAddress",
          "type": "address"
        }
      ],
      "name": "getPaperInfo",
      "outputs": [],
      "stateMutability": "nonpayable",
      "type": "function"
    },
    {
      "inputs": [],
      "name": "sendToEIC",
      "outputs": [],
      "stateMutability": "nonpayable",
      "type": "function"
    },
    {
      "inputs": [],
      "name": "getRecievedByEIC",
      "outputs": [
        {
          "components": [
            {
              "internalType": "string",
              "name": "name",
              "type": "string"
            },
            {
              "internalType": "string",
              "name": "email",
              "type": "string"
            },
            {
              "internalType": "string",
              "name": "abstractofpaper",
              "type": "string"
            },
            {
              "internalType": "string",
              "name": "papertitle",
              "type": "string"
            },
            {
              "internalType": "string",
              "name": "linkofpaper",
              "type": "string"
            },
            {
              "internalType": "address",
              "name": "authorAddress",
              "type": "address"
            },
            {
              "internalType": "string",
              "name": "reviewofreviewer",
              "type": "string"
            },
            {
              "internalType": "string",
              "name": "reviewofAE",
              "type": "string"
            },
            {
              "internalType": "address",
              "name": "reviewerAddress",
              "type": "address"
            }
          ],
          "internalType": "struct Main.PaperStruct[]",
          "name": "",
          "type": "tuple[]"
        }
      ],
      "stateMutability": "view",
      "type": "function",
      "constant": true
    },
    {
      "inputs": [
        {
          "internalType": "bool",
          "name": "_EICapproval",
          "type": "bool"
        }
      ],
      "name": "EICapproval",
      "outputs": [],
      "stateMutability": "nonpayable",
      "type": "function"
    },
    {
      "inputs": [],
      "name": "getApprovedByEIC",
      "outputs": [
        {
          "components": [
            {
              "internalType": "string",
              "name": "name",
              "type": "string"
            },
            {
              "internalType": "string",
              "name": "email",
              "type": "string"
            },
            {
              "internalType": "string",
              "name": "abstractofpaper",
              "type": "string"
            },
            {
              "internalType": "string",
              "name": "papertitle",
              "type": "string"
            },
            {
              "internalType": "string",
              "name": "linkofpaper",
              "type": "string"
            },
            {
              "internalType": "address",
              "name": "authorAddress",
              "type": "address"
            },
            {
              "internalType": "string",
              "name": "reviewofreviewer",
              "type": "string"
            },
            {
              "internalType": "string",
              "name": "reviewofAE",
              "type": "string"
            },
            {
              "internalType": "address",
              "name": "reviewerAddress",
              "type": "address"
            }
          ],
          "internalType": "struct Main.PaperStruct[]",
          "name": "",
          "type": "tuple[]"
        }
      ],
      "stateMutability": "view",
      "type": "function",
      "constant": true
    },
    {
      "inputs": [],
      "name": "getRecievedByAE",
      "outputs": [
        {
          "components": [
            {
              "internalType": "string",
              "name": "name",
              "type": "string"
            },
            {
              "internalType": "string",
              "name": "email",
              "type": "string"
            },
            {
              "internalType": "string",
              "name": "abstractofpaper",
              "type": "string"
            },
            {
              "internalType": "string",
              "name": "papertitle",
              "type": "string"
            },
            {
              "internalType": "string",
              "name": "linkofpaper",
              "type": "string"
            },
            {
              "internalType": "address",
              "name": "authorAddress",
              "type": "address"
            },
            {
              "internalType": "string",
              "name": "reviewofreviewer",
              "type": "string"
            },
            {
              "internalType": "string",
              "name": "reviewofAE",
              "type": "string"
            },
            {
              "internalType": "address",
              "name": "reviewerAddress",
              "type": "address"
            }
          ],
          "internalType": "struct Main.PaperStruct[]",
          "name": "",
          "type": "tuple[]"
        }
      ],
      "stateMutability": "view",
      "type": "function",
      "constant": true
    },
    {
      "inputs": [
        {
          "internalType": "bool",
          "name": "_AEapproval",
          "type": "bool"
        }
      ],
      "name": "AEapproval",
      "outputs": [],
      "stateMutability": "nonpayable",
      "type": "function"
    },
    {
      "inputs": [],
      "name": "getApprovedByAE",
      "outputs": [
        {
          "components": [
            {
              "internalType": "string",
              "name": "name",
              "type": "string"
            },
            {
              "internalType": "string",
              "name": "email",
              "type": "string"
            },
            {
              "internalType": "string",
              "name": "abstractofpaper",
              "type": "string"
            },
            {
              "internalType": "string",
              "name": "papertitle",
              "type": "string"
            },
            {
              "internalType": "string",
              "name": "linkofpaper",
              "type": "string"
            },
            {
              "internalType": "address",
              "name": "authorAddress",
              "type": "address"
            },
            {
              "internalType": "string",
              "name": "reviewofreviewer",
              "type": "string"
            },
            {
              "internalType": "string",
              "name": "reviewofAE",
              "type": "string"
            },
            {
              "internalType": "address",
              "name": "reviewerAddress",
              "type": "address"
            }
          ],
          "internalType": "struct Main.PaperStruct[]",
          "name": "",
          "type": "tuple[]"
        }
      ],
      "stateMutability": "view",
      "type": "function",
      "constant": true
    },
    {
      "inputs": [],
      "name": "getRecievedByReviewer",
      "outputs": [
        {
          "components": [
            {
              "internalType": "string",
              "name": "name",
              "type": "string"
            },
            {
              "internalType": "string",
              "name": "email",
              "type": "string"
            },
            {
              "internalType": "string",
              "name": "abstractofpaper",
              "type": "string"
            },
            {
              "internalType": "string",
              "name": "papertitle",
              "type": "string"
            },
            {
              "internalType": "string",
              "name": "linkofpaper",
              "type": "string"
            },
            {
              "internalType": "address",
              "name": "authorAddress",
              "type": "address"
            },
            {
              "internalType": "string",
              "name": "reviewofreviewer",
              "type": "string"
            },
            {
              "internalType": "string",
              "name": "reviewofAE",
              "type": "string"
            },
            {
              "internalType": "address",
              "name": "reviewerAddress",
              "type": "address"
            }
          ],
          "internalType": "struct Main.PaperStruct[]",
          "name": "",
          "type": "tuple[]"
        }
      ],
      "stateMutability": "view",
      "type": "function",
      "constant": true
    },
    {
      "inputs": [
        {
          "internalType": "bool",
          "name": "_Reviewerapproval",
          "type": "bool"
        },
        {
          "internalType": "string",
          "name": "_Review",
          "type": "string"
        },
        {
          "internalType": "address",
          "name": "_reviewerAddress",
          "type": "address"
        }
      ],
      "name": "Reviewerapproval",
      "outputs": [],
      "stateMutability": "nonpayable",
      "type": "function"
    },
    {
      "inputs": [],
      "name": "getReviewedbyReviewer",
      "outputs": [
        {
          "components": [
            {
              "internalType": "string",
              "name": "name",
              "type": "string"
            },
            {
              "internalType": "string",
              "name": "email",
              "type": "string"
            },
            {
              "internalType": "string",
              "name": "abstractofpaper",
              "type": "string"
            },
            {
              "internalType": "string",
              "name": "papertitle",
              "type": "string"
            },
            {
              "internalType": "string",
              "name": "linkofpaper",
              "type": "string"
            },
            {
              "internalType": "address",
              "name": "authorAddress",
              "type": "address"
            },
            {
              "internalType": "string",
              "name": "reviewofreviewer",
              "type": "string"
            },
            {
              "internalType": "string",
              "name": "reviewofAE",
              "type": "string"
            },
            {
              "internalType": "address",
              "name": "reviewerAddress",
              "type": "address"
            }
          ],
          "internalType": "struct Main.PaperStruct[]",
          "name": "",
          "type": "tuple[]"
        }
      ],
      "stateMutability": "view",
      "type": "function",
      "constant": true
    },
    {
      "inputs": [],
      "name": "RereceivedByAE",
      "outputs": [
        {
          "components": [
            {
              "internalType": "string",
              "name": "name",
              "type": "string"
            },
            {
              "internalType": "string",
              "name": "email",
              "type": "string"
            },
            {
              "internalType": "string",
              "name": "abstractofpaper",
              "type": "string"
            },
            {
              "internalType": "string",
              "name": "papertitle",
              "type": "string"
            },
            {
              "internalType": "string",
              "name": "linkofpaper",
              "type": "string"
            },
            {
              "internalType": "address",
              "name": "authorAddress",
              "type": "address"
            },
            {
              "internalType": "string",
              "name": "reviewofreviewer",
              "type": "string"
            },
            {
              "internalType": "string",
              "name": "reviewofAE",
              "type": "string"
            },
            {
              "internalType": "address",
              "name": "reviewerAddress",
              "type": "address"
            }
          ],
          "internalType": "struct Main.PaperStruct[]",
          "name": "",
          "type": "tuple[]"
        }
      ],
      "stateMutability": "view",
      "type": "function",
      "constant": true
    },
    {
      "inputs": [
        {
          "internalType": "bool",
          "name": "_AEReview",
          "type": "bool"
        },
        {
          "internalType": "string",
          "name": "_Review",
          "type": "string"
        }
      ],
      "name": "ReviewedByAE",
      "outputs": [],
      "stateMutability": "nonpayable",
      "type": "function"
    },
    {
      "inputs": [],
      "name": "getReviewedByAE",
      "outputs": [
        {
          "components": [
            {
              "internalType": "string",
              "name": "name",
              "type": "string"
            },
            {
              "internalType": "string",
              "name": "email",
              "type": "string"
            },
            {
              "internalType": "string",
              "name": "abstractofpaper",
              "type": "string"
            },
            {
              "internalType": "string",
              "name": "papertitle",
              "type": "string"
            },
            {
              "internalType": "string",
              "name": "linkofpaper",
              "type": "string"
            },
            {
              "internalType": "address",
              "name": "authorAddress",
              "type": "address"
            },
            {
              "internalType": "string",
              "name": "reviewofreviewer",
              "type": "string"
            },
            {
              "internalType": "string",
              "name": "reviewofAE",
              "type": "string"
            },
            {
              "internalType": "address",
              "name": "reviewerAddress",
              "type": "address"
            }
          ],
          "internalType": "struct Main.PaperStruct[]",
          "name": "",
          "type": "tuple[]"
        }
      ],
      "stateMutability": "view",
      "type": "function",
      "constant": true
    }
  ],
  "bytecode": "0x60806040526000600c5560006010556000601455600060175534801561002457600080fd5b50615c9f80620000356000396000f3fe608060405234801561001057600080fd5b50600436106100ea5760003560e01c80639ebb54b11161008c578063c8a0327a11610066578063c8a0327a14610213578063e299e20614610231578063e4a427741461023b578063fc37b7ad14610257576100ea565b80639ebb54b1146101b9578063b88f24b0146101d7578063c4959c8f146101f5576100ea565b8063374b90d4116100c8578063374b90d41461014757806338991a99146101635780635468b4a31461017f578063688bba4a1461019d576100ea565b806322163a77146100ef5780632f090c331461010d5780632f9604d01461012b575b600080fd5b6100f7610275565b60405161010491906153e2565b60405180910390f35b61011561077f565b60405161012291906153e2565b60405180910390f35b61014560048036038101906101409190615579565b610c89565b005b610161600480360381019061015c91906156ca565b610d33565b005b61017d600480360381019061017891906156ca565b61185e565b005b610187612389565b60405161019491906153e2565b60405180910390f35b6101b760048036038101906101b291906156f7565b612893565b005b6101c1613017565b6040516101ce91906153e2565b60405180910390f35b6101df613521565b6040516101ec91906153e2565b60405180910390f35b6101fd613a2b565b60405161020a91906153e2565b60405180910390f35b61021b613f35565b60405161022891906153e2565b60405180910390f35b61023961443f565b005b61025560048036038101906102509190615766565b61464a565b005b61025f614bf9565b60405161026c91906153e2565b60405180910390f35b60606013805480602002602001604051908101604052809291908181526020016000905b828210156107765783829060005260206000209060090201604051806101200160405290816000820180546102cd906157f1565b80601f01602080910402602001604051908101604052809291908181526020018280546102f9906157f1565b80156103465780601f1061031b57610100808354040283529160200191610346565b820191906000526020600020905b81548152906001019060200180831161032957829003601f168201915b5050505050815260200160018201805461035f906157f1565b80601f016020809104026020016040519081016040528092919081815260200182805461038b906157f1565b80156103d85780601f106103ad576101008083540402835291602001916103d8565b820191906000526020600020905b8154815290600101906020018083116103bb57829003601f168201915b505050505081526020016002820180546103f1906157f1565b80601f016020809104026020016040519081016040528092919081815260200182805461041d906157f1565b801561046a5780601f1061043f5761010080835404028352916020019161046a565b820191906000526020600020905b81548152906001019060200180831161044d57829003601f168201915b50505050508152602001600382018054610483906157f1565b80601f01602080910402602001604051908101604052809291908181526020018280546104af906157f1565b80156104fc5780601f106104d1576101008083540402835291602001916104fc565b820191906000526020600020905b8154815290600101906020018083116104df57829003601f168201915b50505050508152602001600482018054610515906157f1565b80601f0160208091040260200160405190810160405280929190818152602001828054610541906157f1565b801561058e5780601f106105635761010080835404028352916020019161058e565b820191906000526020600020905b81548152906001019060200180831161057157829003601f168201915b505050505081526020016005820160009054906101000a900473ffffffffffffffffffffffffffffffffffffffff1673ffffffffffffffffffffffffffffffffffffffff1673ffffffffffffffffffffffffffffffffffffffff1681526020016006820180546105fd906157f1565b80601f0160208091040260200160405190810160405280929190818152602001828054610629906157f1565b80156106765780601f1061064b57610100808354040283529160200191610676565b820191906000526020600020905b81548152906001019060200180831161065957829003601f168201915b5050505050815260200160078201805461068f906157f1565b80601f01602080910402602001604051908101604052809291908181526020018280546106bb906157f1565b80156107085780601f106106dd57610100808354040283529160200191610708565b820191906000526020600020905b8154815290600101906020018083116106eb57829003601f168201915b505050505081526020016008820160009054906101000a900473ffffffffffffffffffffffffffffffffffffffff1673ffffffffffffffffffffffffffffffffffffffff1673ffffffffffffffffffffffffffffffffffffffff168152505081526020019060010190610299565b50505050905090565b60606012805480602002602001604051908101604052809291908181526020016000905b82821015610c805783829060005260206000209060090201604051806101200160405290816000820180546107d7906157f1565b80601f0160208091040260200160405190810160405280929190818152602001828054610803906157f1565b80156108505780601f1061082557610100808354040283529160200191610850565b820191906000526020600020905b81548152906001019060200180831161083357829003601f168201915b50505050508152602001600182018054610869906157f1565b80601f0160208091040260200160405190810160405280929190818152602001828054610895906157f1565b80156108e25780601f106108b7576101008083540402835291602001916108e2565b820191906000526020600020905b8154815290600101906020018083116108c557829003601f168201915b505050505081526020016002820180546108fb906157f1565b80601f0160208091040260200160405190810160405280929190818152602001828054610927906157f1565b80156109745780601f1061094957610100808354040283529160200191610974565b820191906000526020600020905b81548152906001019060200180831161095757829003601f168201915b5050505050815260200160038201805461098d906157f1565b80601f01602080910402602001604051908101604052809291908181526020018280546109b9906157f1565b8015610a065780601f106109db57610100808354040283529160200191610a06565b820191906000526020600020905b8154815290600101906020018083116109e957829003601f168201915b50505050508152602001600482018054610a1f906157f1565b80601f0160208091040260200160405190810160405280929190818152602001828054610a4b906157f1565b8015610a985780601f10610a6d57610100808354040283529160200191610a98565b820191906000526020600020905b815481529060010190602001808311610a7b57829003601f168201915b505050505081526020016005820160009054906101000a900473ffffffffffffffffffffffffffffffffffffffff1673ffffffffffffffffffffffffffffffffffffffff1673ffffffffffffffffffffffffffffffffffffffff168152602001600682018054610b07906157f1565b80601f0160208091040260200160405190810160405280929190818152602001828054610b33906157f1565b8015610b805780601f10610b5557610100808354040283529160200191610b80565b820191906000526020600020905b815481529060010190602001808311610b6357829003601f168201915b50505050508152602001600782018054610b99906157f1565b80601f0160208091040260200160405190810160405280929190818152602001828054610bc5906157f1565b8015610c125780601f10610be757610100808354040283529160200191610c12565b820191906000526020600020905b815481529060010190602001808311610bf557829003601f168201915b505050505081526020016008820160009054906101000a900473ffffffffffffffffffffffffffffffffffffffff1673ffffffffffffffffffffffffffffffffffffffff1673ffffffffffffffffffffffffffffffffffffffff1681525050815260200190600101906107a3565b50505050905090565b85600080019081610c9a91906159d8565b508460006001019081610cad91906159d8565b508360006002019081610cc091906159d8565b508260006003019081610cd391906159d8565b508160006004019081610ce691906159d8565b5080600060050160006101000a81548173ffffffffffffffffffffffffffffffffffffffff021916908373ffffffffffffffffffffffffffffffffffffffff160217905550505050505050565b600115158115150361145f57600e6000908060018154018082558091505060019003906000526020600020906009020160009091909190915060008201816000019081610d809190615ac0565b5060018201816001019081610d959190615ac0565b5060028201816002019081610daa9190615ac0565b5060038201816003019081610dbf9190615ac0565b5060048201816004019081610dd49190615ac0565b506005820160009054906101000a900473ffffffffffffffffffffffffffffffffffffffff168160050160006101000a81548173ffffffffffffffffffffffffffffffffffffffff021916908373ffffffffffffffffffffffffffffffffffffffff16021790555060068201816006019081610e509190615ac0565b5060078201816007019081610e659190615ac0565b506008820160009054906101000a900473ffffffffffffffffffffffffffffffffffffffff168160080160006101000a81548173ffffffffffffffffffffffffffffffffffffffff021916908373ffffffffffffffffffffffffffffffffffffffff1602179055505050600f6000908060018154018082558091505060019003906000526020600020906009020160009091909190915060008201816000019081610f109190615ac0565b5060018201816001019081610f259190615ac0565b5060028201816002019081610f3a9190615ac0565b5060038201816003019081610f4f9190615ac0565b5060048201816004019081610f649190615ac0565b506005820160009054906101000a900473ffffffffffffffffffffffffffffffffffffffff168160050160006101000a81548173ffffffffffffffffffffffffffffffffffffffff021916908373ffffffffffffffffffffffffffffffffffffffff16021790555060068201816006019081610fe09190615ac0565b5060078201816007019081610ff59190615ac0565b506008820160009054906101000a900473ffffffffffffffffffffffffffffffffffffffff168160080160006101000a81548173ffffffffffffffffffffffffffffffffffffffff021916908373ffffffffffffffffffffffffffffffffffffffff16021790555050506000601160008060050160009054906101000a900473ffffffffffffffffffffffffffffffffffffffff1673ffffffffffffffffffffffffffffffffffffffff1673ffffffffffffffffffffffffffffffffffffffff168152602001908152602001600020549050600b6001600b805490506110db9190615bd7565b815481106110ec576110eb615c0b565b5b9060005260206000209060090201600b828154811061110e5761110d615c0b565b5b9060005260206000209060090201600082018160000190816111309190615ac0565b50600182018160010190816111459190615ac0565b506002820181600201908161115a9190615ac0565b506003820181600301908161116f9190615ac0565b50600482018160040190816111849190615ac0565b506005820160009054906101000a900473ffffffffffffffffffffffffffffffffffffffff168160050160006101000a81548173ffffffffffffffffffffffffffffffffffffffff021916908373ffffffffffffffffffffffffffffffffffffffff160217905550600682018160060190816112009190615ac0565b50600782018160070190816112159190615ac0565b506008820160009054906101000a900473ffffffffffffffffffffffffffffffffffffffff168160080160006101000a81548173ffffffffffffffffffffffffffffffffffffffff021916908373ffffffffffffffffffffffffffffffffffffffff1602179055509050508060116000600b848154811061129957611298615c0b565b5b906000526020600020906009020160050160009054906101000a900473ffffffffffffffffffffffffffffffffffffffff1673ffffffffffffffffffffffffffffffffffffffff1673ffffffffffffffffffffffffffffffffffffffff16815260200190815260200160002081905550600b80548061131b5761131a615c3a565b5b6001900381819060005260206000209060090201600080820160006113409190615103565b6001820160006113509190615103565b6002820160006113609190615103565b6003820160006113709190615103565b6004820160006113809190615103565b6005820160006101000a81549073ffffffffffffffffffffffffffffffffffffffff02191690556006820160006113b79190615103565b6007820160006113c79190615103565b6008820160006101000a81549073ffffffffffffffffffffffffffffffffffffffff021916905550509055601160008060050160009054906101000a900473ffffffffffffffffffffffffffffffffffffffff1673ffffffffffffffffffffffffffffffffffffffff1673ffffffffffffffffffffffffffffffffffffffff168152602001908152602001600020600090555061185b565b6000601160008060050160009054906101000a900473ffffffffffffffffffffffffffffffffffffffff1673ffffffffffffffffffffffffffffffffffffffff1673ffffffffffffffffffffffffffffffffffffffff168152602001908152602001600020549050600b6001600b805490506114db9190615bd7565b815481106114ec576114eb615c0b565b5b9060005260206000209060090201600b828154811061150e5761150d615c0b565b5b9060005260206000209060090201600082018160000190816115309190615ac0565b50600182018160010190816115459190615ac0565b506002820181600201908161155a9190615ac0565b506003820181600301908161156f9190615ac0565b50600482018160040190816115849190615ac0565b506005820160009054906101000a900473ffffffffffffffffffffffffffffffffffffffff168160050160006101000a81548173ffffffffffffffffffffffffffffffffffffffff021916908373ffffffffffffffffffffffffffffffffffffffff160217905550600682018160060190816116009190615ac0565b50600782018160070190816116159190615ac0565b506008820160009054906101000a900473ffffffffffffffffffffffffffffffffffffffff168160080160006101000a81548173ffffffffffffffffffffffffffffffffffffffff021916908373ffffffffffffffffffffffffffffffffffffffff1602179055509050508060116000600b848154811061169957611698615c0b565b5b906000526020600020906009020160050160009054906101000a900473ffffffffffffffffffffffffffffffffffffffff1673ffffffffffffffffffffffffffffffffffffffff1673ffffffffffffffffffffffffffffffffffffffff16815260200190815260200160002081905550600b80548061171b5761171a615c3a565b5b6001900381819060005260206000209060090201600080820160006117409190615103565b6001820160006117509190615103565b6002820160006117609190615103565b6003820160006117709190615103565b6004820160006117809190615103565b6005820160006101000a81549073ffffffffffffffffffffffffffffffffffffffff02191690556006820160006117b79190615103565b6007820160006117c79190615103565b6008820160006101000a81549073ffffffffffffffffffffffffffffffffffffffff021916905550509055601160008060050160009054906101000a900473ffffffffffffffffffffffffffffffffffffffff1673ffffffffffffffffffffffffffffffffffffffff1673ffffffffffffffffffffffffffffffffffffffff16815260200190815260200160002060009055505b50565b6001151581151503611f8a57600960009080600181540180825580915050600190039060005260206000209060090201600090919091909150600082018160000190816118ab9190615ac0565b50600182018160010190816118c09190615ac0565b50600282018160020190816118d59190615ac0565b50600382018160030190816118ea9190615ac0565b50600482018160040190816118ff9190615ac0565b506005820160009054906101000a900473ffffffffffffffffffffffffffffffffffffffff168160050160006101000a81548173ffffffffffffffffffffffffffffffffffffffff021916908373ffffffffffffffffffffffffffffffffffffffff1602179055506006820181600601908161197b9190615ac0565b50600782018160070190816119909190615ac0565b506008820160009054906101000a900473ffffffffffffffffffffffffffffffffffffffff168160080160006101000a81548173ffffffffffffffffffffffffffffffffffffffff021916908373ffffffffffffffffffffffffffffffffffffffff1602179055505050600b6000908060018154018082558091505060019003906000526020600020906009020160009091909190915060008201816000019081611a3b9190615ac0565b5060018201816001019081611a509190615ac0565b5060028201816002019081611a659190615ac0565b5060038201816003019081611a7a9190615ac0565b5060048201816004019081611a8f9190615ac0565b506005820160009054906101000a900473ffffffffffffffffffffffffffffffffffffffff168160050160006101000a81548173ffffffffffffffffffffffffffffffffffffffff021916908373ffffffffffffffffffffffffffffffffffffffff16021790555060068201816006019081611b0b9190615ac0565b5060078201816007019081611b209190615ac0565b506008820160009054906101000a900473ffffffffffffffffffffffffffffffffffffffff168160080160006101000a81548173ffffffffffffffffffffffffffffffffffffffff021916908373ffffffffffffffffffffffffffffffffffffffff16021790555050506000600d60008060050160009054906101000a900473ffffffffffffffffffffffffffffffffffffffff1673ffffffffffffffffffffffffffffffffffffffff1673ffffffffffffffffffffffffffffffffffffffff168152602001908152602001600020549050600a6001600a80549050611c069190615bd7565b81548110611c1757611c16615c0b565b5b9060005260206000209060090201600a8281548110611c3957611c38615c0b565b5b906000526020600020906009020160008201816000019081611c5b9190615ac0565b5060018201816001019081611c709190615ac0565b5060028201816002019081611c859190615ac0565b5060038201816003019081611c9a9190615ac0565b5060048201816004019081611caf9190615ac0565b506005820160009054906101000a900473ffffffffffffffffffffffffffffffffffffffff168160050160006101000a81548173ffffffffffffffffffffffffffffffffffffffff021916908373ffffffffffffffffffffffffffffffffffffffff16021790555060068201816006019081611d2b9190615ac0565b5060078201816007019081611d409190615ac0565b506008820160009054906101000a900473ffffffffffffffffffffffffffffffffffffffff168160080160006101000a81548173ffffffffffffffffffffffffffffffffffffffff021916908373ffffffffffffffffffffffffffffffffffffffff16021790555090505080600d6000600a8481548110611dc457611dc3615c0b565b5b906000526020600020906009020160050160009054906101000a900473ffffffffffffffffffffffffffffffffffffffff1673ffffffffffffffffffffffffffffffffffffffff1673ffffffffffffffffffffffffffffffffffffffff16815260200190815260200160002081905550600a805480611e4657611e45615c3a565b5b600190038181906000526020600020906009020160008082016000611e6b9190615103565b600182016000611e7b9190615103565b600282016000611e8b9190615103565b600382016000611e9b9190615103565b600482016000611eab9190615103565b6005820160006101000a81549073ffffffffffffffffffffffffffffffffffffffff0219169055600682016000611ee29190615103565b600782016000611ef29190615103565b6008820160006101000a81549073ffffffffffffffffffffffffffffffffffffffff021916905550509055600d60008060050160009054906101000a900473ffffffffffffffffffffffffffffffffffffffff1673ffffffffffffffffffffffffffffffffffffffff1673ffffffffffffffffffffffffffffffffffffffff1681526020019081526020016000206000905550612386565b6000600d60008060050160009054906101000a900473ffffffffffffffffffffffffffffffffffffffff1673ffffffffffffffffffffffffffffffffffffffff1673ffffffffffffffffffffffffffffffffffffffff168152602001908152602001600020549050600a6001600a805490506120069190615bd7565b8154811061201757612016615c0b565b5b9060005260206000209060090201600a828154811061203957612038615c0b565b5b90600052602060002090600902016000820181600001908161205b9190615ac0565b50600182018160010190816120709190615ac0565b50600282018160020190816120859190615ac0565b506003820181600301908161209a9190615ac0565b50600482018160040190816120af9190615ac0565b506005820160009054906101000a900473ffffffffffffffffffffffffffffffffffffffff168160050160006101000a81548173ffffffffffffffffffffffffffffffffffffffff021916908373ffffffffffffffffffffffffffffffffffffffff1602179055506006820181600601908161212b9190615ac0565b50600782018160070190816121409190615ac0565b506008820160009054906101000a900473ffffffffffffffffffffffffffffffffffffffff168160080160006101000a81548173ffffffffffffffffffffffffffffffffffffffff021916908373ffffffffffffffffffffffffffffffffffffffff16021790555090505080600d6000600a84815481106121c4576121c3615c0b565b5b906000526020600020906009020160050160009054906101000a900473ffffffffffffffffffffffffffffffffffffffff1673ffffffffffffffffffffffffffffffffffffffff1673ffffffffffffffffffffffffffffffffffffffff16815260200190815260200160002081905550600a80548061224657612245615c3a565b5b60019003818190600052602060002090600902016000808201600061226b9190615103565b60018201600061227b9190615103565b60028201600061228b9190615103565b60038201600061229b9190615103565b6004820160006122ab9190615103565b6005820160006101000a81549073ffffffffffffffffffffffffffffffffffffffff02191690556006820160006122e29190615103565b6007820160006122f29190615103565b6008820160006101000a81549073ffffffffffffffffffffffffffffffffffffffff021916905550509055600d60008060050160009054906101000a900473ffffffffffffffffffffffffffffffffffffffff1673ffffffffffffffffffffffffffffffffffffffff1673ffffffffffffffffffffffffffffffffffffffff16815260200190815260200160002060009055505b50565b6060600e805480602002602001604051908101604052809291908181526020016000905b8282101561288a5783829060005260206000209060090201604051806101200160405290816000820180546123e1906157f1565b80601f016020809104026020016040519081016040528092919081815260200182805461240d906157f1565b801561245a5780601f1061242f5761010080835404028352916020019161245a565b820191906000526020600020905b81548152906001019060200180831161243d57829003601f168201915b50505050508152602001600182018054612473906157f1565b80601f016020809104026020016040519081016040528092919081815260200182805461249f906157f1565b80156124ec5780601f106124c1576101008083540402835291602001916124ec565b820191906000526020600020905b8154815290600101906020018083116124cf57829003601f168201915b50505050508152602001600282018054612505906157f1565b80601f0160208091040260200160405190810160405280929190818152602001828054612531906157f1565b801561257e5780601f106125535761010080835404028352916020019161257e565b820191906000526020600020905b81548152906001019060200180831161256157829003601f168201915b50505050508152602001600382018054612597906157f1565b80601f01602080910402602001604051908101604052809291908181526020018280546125c3906157f1565b80156126105780601f106125e557610100808354040283529160200191612610565b820191906000526020600020905b8154815290600101906020018083116125f357829003601f168201915b50505050508152602001600482018054612629906157f1565b80601f0160208091040260200160405190810160405280929190818152602001828054612655906157f1565b80156126a25780601f10612677576101008083540402835291602001916126a2565b820191906000526020600020905b81548152906001019060200180831161268557829003601f168201915b505050505081526020016005820160009054906101000a900473ffffffffffffffffffffffffffffffffffffffff1673ffffffffffffffffffffffffffffffffffffffff1673ffffffffffffffffffffffffffffffffffffffff168152602001600682018054612711906157f1565b80601f016020809104026020016040519081016040528092919081815260200182805461273d906157f1565b801561278a5780601f1061275f5761010080835404028352916020019161278a565b820191906000526020600020905b81548152906001019060200180831161276d57829003601f168201915b505050505081526020016007820180546127a3906157f1565b80601f01602080910402602001604051908101604052809291908181526020018280546127cf906157f1565b801561281c5780601f106127f15761010080835404028352916020019161281c565b820191906000526020600020905b8154815290600101906020018083116127ff57829003601f168201915b505050505081526020016008820160009054906101000a900473ffffffffffffffffffffffffffffffffffffffff1673ffffffffffffffffffffffffffffffffffffffff1673ffffffffffffffffffffffffffffffffffffffff1681525050815260200190600101906123ad565b50505050905090565b81600060060190816128a591906159d8565b5080600060080160006101000a81548173ffffffffffffffffffffffffffffffffffffffff021916908373ffffffffffffffffffffffffffffffffffffffff160217905550600115158315150361301257601260009080600181540180825580915050600190039060005260206000209060090201600090919091909150600082018160000190816129379190615ac0565b506001820181600101908161294c9190615ac0565b50600282018160020190816129619190615ac0565b50600382018160030190816129769190615ac0565b506004820181600401908161298b9190615ac0565b506005820160009054906101000a900473ffffffffffffffffffffffffffffffffffffffff168160050160006101000a81548173ffffffffffffffffffffffffffffffffffffffff021916908373ffffffffffffffffffffffffffffffffffffffff16021790555060068201816006019081612a079190615ac0565b5060078201816007019081612a1c9190615ac0565b506008820160009054906101000a900473ffffffffffffffffffffffffffffffffffffffff168160080160006101000a81548173ffffffffffffffffffffffffffffffffffffffff021916908373ffffffffffffffffffffffffffffffffffffffff160217905550505060136000908060018154018082558091505060019003906000526020600020906009020160009091909190915060008201816000019081612ac79190615ac0565b5060018201816001019081612adc9190615ac0565b5060028201816002019081612af19190615ac0565b5060038201816003019081612b069190615ac0565b5060048201816004019081612b1b9190615ac0565b506005820160009054906101000a900473ffffffffffffffffffffffffffffffffffffffff168160050160006101000a81548173ffffffffffffffffffffffffffffffffffffffff021916908373ffffffffffffffffffffffffffffffffffffffff16021790555060068201816006019081612b979190615ac0565b5060078201816007019081612bac9190615ac0565b506008820160009054906101000a900473ffffffffffffffffffffffffffffffffffffffff168160080160006101000a81548173ffffffffffffffffffffffffffffffffffffffff021916908373ffffffffffffffffffffffffffffffffffffffff16021790555050506000601560008060050160009054906101000a900473ffffffffffffffffffffffffffffffffffffffff1673ffffffffffffffffffffffffffffffffffffffff1673ffffffffffffffffffffffffffffffffffffffff168152602001908152602001600020549050600f6001600f80549050612c929190615bd7565b81548110612ca357612ca2615c0b565b5b9060005260206000209060090201600f8281548110612cc557612cc4615c0b565b5b906000526020600020906009020160008201816000019081612ce79190615ac0565b5060018201816001019081612cfc9190615ac0565b5060028201816002019081612d119190615ac0565b5060038201816003019081612d269190615ac0565b5060048201816004019081612d3b9190615ac0565b506005820160009054906101000a900473ffffffffffffffffffffffffffffffffffffffff168160050160006101000a81548173ffffffffffffffffffffffffffffffffffffffff021916908373ffffffffffffffffffffffffffffffffffffffff16021790555060068201816006019081612db79190615ac0565b5060078201816007019081612dcc9190615ac0565b506008820160009054906101000a900473ffffffffffffffffffffffffffffffffffffffff168160080160006101000a81548173ffffffffffffffffffffffffffffffffffffffff021916908373ffffffffffffffffffffffffffffffffffffffff1602179055509050508060156000600f8481548110612e5057612e4f615c0b565b5b906000526020600020906009020160050160009054906101000a900473ffffffffffffffffffffffffffffffffffffffff1673ffffffffffffffffffffffffffffffffffffffff1673ffffffffffffffffffffffffffffffffffffffff16815260200190815260200160002081905550600f805480612ed257612ed1615c3a565b5b600190038181906000526020600020906009020160008082016000612ef79190615103565b600182016000612f079190615103565b600282016000612f179190615103565b600382016000612f279190615103565b600482016000612f379190615103565b6005820160006101000a81549073ffffffffffffffffffffffffffffffffffffffff0219169055600682016000612f6e9190615103565b600782016000612f7e9190615103565b6008820160006101000a81549073ffffffffffffffffffffffffffffffffffffffff021916905550509055601560008060050160009054906101000a900473ffffffffffffffffffffffffffffffffffffffff1673ffffffffffffffffffffffffffffffffffffffff1673ffffffffffffffffffffffffffffffffffffffff16815260200190815260200160002060009055505b505050565b60606009805480602002602001604051908101604052809291908181526020016000905b8282101561351857838290600052602060002090600902016040518061012001604052908160008201805461306f906157f1565b80601f016020809104026020016040519081016040528092919081815260200182805461309b906157f1565b80156130e85780601f106130bd576101008083540402835291602001916130e8565b820191906000526020600020905b8154815290600101906020018083116130cb57829003601f168201915b50505050508152602001600182018054613101906157f1565b80601f016020809104026020016040519081016040528092919081815260200182805461312d906157f1565b801561317a5780601f1061314f5761010080835404028352916020019161317a565b820191906000526020600020905b81548152906001019060200180831161315d57829003601f168201915b50505050508152602001600282018054613193906157f1565b80601f01602080910402602001604051908101604052809291908181526020018280546131bf906157f1565b801561320c5780601f106131e15761010080835404028352916020019161320c565b820191906000526020600020905b8154815290600101906020018083116131ef57829003601f168201915b50505050508152602001600382018054613225906157f1565b80601f0160208091040260200160405190810160405280929190818152602001828054613251906157f1565b801561329e5780601f106132735761010080835404028352916020019161329e565b820191906000526020600020905b81548152906001019060200180831161328157829003601f168201915b505050505081526020016004820180546132b7906157f1565b80601f01602080910402602001604051908101604052809291908181526020018280546132e3906157f1565b80156133305780601f1061330557610100808354040283529160200191613330565b820191906000526020600020905b81548152906001019060200180831161331357829003601f168201915b505050505081526020016005820160009054906101000a900473ffffffffffffffffffffffffffffffffffffffff1673ffffffffffffffffffffffffffffffffffffffff1673ffffffffffffffffffffffffffffffffffffffff16815260200160068201805461339f906157f1565b80601f01602080910402602001604051908101604052809291908181526020018280546133cb906157f1565b80156134185780601f106133ed57610100808354040283529160200191613418565b820191906000526020600020905b8154815290600101906020018083116133fb57829003601f168201915b50505050508152602001600782018054613431906157f1565b80601f016020809104026020016040519081016040528092919081815260200182805461345d906157f1565b80156134aa5780601f1061347f576101008083540402835291602001916134aa565b820191906000526020600020905b81548152906001019060200180831161348d57829003601f168201915b505050505081526020016008820160009054906101000a900473ffffffffffffffffffffffffffffffffffffffff1673ffffffffffffffffffffffffffffffffffffffff1673ffffffffffffffffffffffffffffffffffffffff16815250508152602001906001019061303b565b50505050905090565b6060600b805480602002602001604051908101604052809291908181526020016000905b82821015613a22578382906000526020600020906009020160405180610120016040529081600082018054613579906157f1565b80601f01602080910402602001604051908101604052809291908181526020018280546135a5906157f1565b80156135f25780601f106135c7576101008083540402835291602001916135f2565b820191906000526020600020905b8154815290600101906020018083116135d557829003601f168201915b5050505050815260200160018201805461360b906157f1565b80601f0160208091040260200160405190810160405280929190818152602001828054613637906157f1565b80156136845780601f1061365957610100808354040283529160200191613684565b820191906000526020600020905b81548152906001019060200180831161366757829003601f168201915b5050505050815260200160028201805461369d906157f1565b80601f01602080910402602001604051908101604052809291908181526020018280546136c9906157f1565b80156137165780601f106136eb57610100808354040283529160200191613716565b820191906000526020600020905b8154815290600101906020018083116136f957829003601f168201915b5050505050815260200160038201805461372f906157f1565b80601f016020809104026020016040519081016040528092919081815260200182805461375b906157f1565b80156137a85780601f1061377d576101008083540402835291602001916137a8565b820191906000526020600020905b81548152906001019060200180831161378b57829003601f168201915b505050505081526020016004820180546137c1906157f1565b80601f01602080910402602001604051908101604052809291908181526020018280546137ed906157f1565b801561383a5780601f1061380f5761010080835404028352916020019161383a565b820191906000526020600020905b81548152906001019060200180831161381d57829003601f168201915b505050505081526020016005820160009054906101000a900473ffffffffffffffffffffffffffffffffffffffff1673ffffffffffffffffffffffffffffffffffffffff1673ffffffffffffffffffffffffffffffffffffffff1681526020016006820180546138a9906157f1565b80601f01602080910402602001604051908101604052809291908181526020018280546138d5906157f1565b80156139225780601f106138f757610100808354040283529160200191613922565b820191906000526020600020905b81548152906001019060200180831161390557829003601f168201915b5050505050815260200160078201805461393b906157f1565b80601f0160208091040260200160405190810160405280929190818152602001828054613967906157f1565b80156139b45780601f10613989576101008083540402835291602001916139b4565b820191906000526020600020905b81548152906001019060200180831161399757829003601f168201915b505050505081526020016008820160009054906101000a900473ffffffffffffffffffffffffffffffffffffffff1673ffffffffffffffffffffffffffffffffffffffff1673ffffffffffffffffffffffffffffffffffffffff168152505081526020019060010190613545565b50505050905090565b6060600f805480602002602001604051908101604052809291908181526020016000905b82821015613f2c578382906000526020600020906009020160405180610120016040529081600082018054613a83906157f1565b80601f0160208091040260200160405190810160405280929190818152602001828054613aaf906157f1565b8015613afc5780601f10613ad157610100808354040283529160200191613afc565b820191906000526020600020905b815481529060010190602001808311613adf57829003601f168201915b50505050508152602001600182018054613b15906157f1565b80601f0160208091040260200160405190810160405280929190818152602001828054613b41906157f1565b8015613b8e5780601f10613b6357610100808354040283529160200191613b8e565b820191906000526020600020905b815481529060010190602001808311613b7157829003601f168201915b50505050508152602001600282018054613ba7906157f1565b80601f0160208091040260200160405190810160405280929190818152602001828054613bd3906157f1565b8015613c205780601f10613bf557610100808354040283529160200191613c20565b820191906000526020600020905b815481529060010190602001808311613c0357829003601f168201915b50505050508152602001600382018054613c39906157f1565b80601f0160208091040260200160405190810160405280929190818152602001828054613c65906157f1565b8015613cb25780601f10613c8757610100808354040283529160200191613cb2565b820191906000526020600020905b815481529060010190602001808311613c9557829003601f168201915b50505050508152602001600482018054613ccb906157f1565b80601f0160208091040260200160405190810160405280929190818152602001828054613cf7906157f1565b8015613d445780601f10613d1957610100808354040283529160200191613d44565b820191906000526020600020905b815481529060010190602001808311613d2757829003601f168201915b505050505081526020016005820160009054906101000a900473ffffffffffffffffffffffffffffffffffffffff1673ffffffffffffffffffffffffffffffffffffffff1673ffffffffffffffffffffffffffffffffffffffff168152602001600682018054613db3906157f1565b80601f0160208091040260200160405190810160405280929190818152602001828054613ddf906157f1565b8015613e2c5780601f10613e0157610100808354040283529160200191613e2c565b820191906000526020600020905b815481529060010190602001808311613e0f57829003601f168201915b50505050508152602001600782018054613e45906157f1565b80601f0160208091040260200160405190810160405280929190818152602001828054613e71906157f1565b8015613ebe5780601f10613e9357610100808354040283529160200191613ebe565b820191906000526020600020905b815481529060010190602001808311613ea157829003601f168201915b505050505081526020016008820160009054906101000a900473ffffffffffffffffffffffffffffffffffffffff1673ffffffffffffffffffffffffffffffffffffffff1673ffffffffffffffffffffffffffffffffffffffff168152505081526020019060010190613a4f565b50505050905090565b6060600a805480602002602001604051908101604052809291908181526020016000905b82821015614436578382906000526020600020906009020160405180610120016040529081600082018054613f8d906157f1565b80601f0160208091040260200160405190810160405280929190818152602001828054613fb9906157f1565b80156140065780601f10613fdb57610100808354040283529160200191614006565b820191906000526020600020905b815481529060010190602001808311613fe957829003601f168201915b5050505050815260200160018201805461401f906157f1565b80601f016020809104026020016040519081016040528092919081815260200182805461404b906157f1565b80156140985780601f1061406d57610100808354040283529160200191614098565b820191906000526020600020905b81548152906001019060200180831161407b57829003601f168201915b505050505081526020016002820180546140b1906157f1565b80601f01602080910402602001604051908101604052809291908181526020018280546140dd906157f1565b801561412a5780601f106140ff5761010080835404028352916020019161412a565b820191906000526020600020905b81548152906001019060200180831161410d57829003601f168201915b50505050508152602001600382018054614143906157f1565b80601f016020809104026020016040519081016040528092919081815260200182805461416f906157f1565b80156141bc5780601f10614191576101008083540402835291602001916141bc565b820191906000526020600020905b81548152906001019060200180831161419f57829003601f168201915b505050505081526020016004820180546141d5906157f1565b80601f0160208091040260200160405190810160405280929190818152602001828054614201906157f1565b801561424e5780601f106142235761010080835404028352916020019161424e565b820191906000526020600020905b81548152906001019060200180831161423157829003601f168201915b505050505081526020016005820160009054906101000a900473ffffffffffffffffffffffffffffffffffffffff1673ffffffffffffffffffffffffffffffffffffffff1673ffffffffffffffffffffffffffffffffffffffff1681526020016006820180546142bd906157f1565b80601f01602080910402602001604051908101604052809291908181526020018280546142e9906157f1565b80156143365780601f1061430b57610100808354040283529160200191614336565b820191906000526020600020905b81548152906001019060200180831161431957829003601f168201915b5050505050815260200160078201805461434f906157f1565b80601f016020809104026020016040519081016040528092919081815260200182805461437b906157f1565b80156143c85780601f1061439d576101008083540402835291602001916143c8565b820191906000526020600020905b8154815290600101906020018083116143ab57829003601f168201915b505050505081526020016008820160009054906101000a900473ffffffffffffffffffffffffffffffffffffffff1673ffffffffffffffffffffffffffffffffffffffff1673ffffffffffffffffffffffffffffffffffffffff168152505081526020019060010190613f59565b50505050905090565b600a60009080600181540180825580915050600190039060005260206000209060090201600090919091909150600082018160000190816144809190615ac0565b50600182018160010190816144959190615ac0565b50600282018160020190816144aa9190615ac0565b50600382018160030190816144bf9190615ac0565b50600482018160040190816144d49190615ac0565b506005820160009054906101000a900473ffffffffffffffffffffffffffffffffffffffff168160050160006101000a81548173ffffffffffffffffffffffffffffffffffffffff021916908373ffffffffffffffffffffffffffffffffffffffff160217905550600682018160060190816145509190615ac0565b50600782018160070190816145659190615ac0565b506008820160009054906101000a900473ffffffffffffffffffffffffffffffffffffffff168160080160006101000a81548173ffffffffffffffffffffffffffffffffffffffff021916908373ffffffffffffffffffffffffffffffffffffffff16021790555050506001600a805490506145e19190615bd7565b600d60008060050160009054906101000a900473ffffffffffffffffffffffffffffffffffffffff1673ffffffffffffffffffffffffffffffffffffffff1673ffffffffffffffffffffffffffffffffffffffff16815260200190815260200160002081905550565b6001151582151503614bf557806000600701908161466891906159d8565b50601660009080600181540180825580915050600190039060005260206000209060090201600090919091909150600082018160000190816146aa9190615ac0565b50600182018160010190816146bf9190615ac0565b50600282018160020190816146d49190615ac0565b50600382018160030190816146e99190615ac0565b50600482018160040190816146fe9190615ac0565b506005820160009054906101000a900473ffffffffffffffffffffffffffffffffffffffff168160050160006101000a81548173ffffffffffffffffffffffffffffffffffffffff021916908373ffffffffffffffffffffffffffffffffffffffff1602179055506006820181600601908161477a9190615ac0565b506007820181600701908161478f9190615ac0565b506008820160009054906101000a900473ffffffffffffffffffffffffffffffffffffffff168160080160006101000a81548173ffffffffffffffffffffffffffffffffffffffff021916908373ffffffffffffffffffffffffffffffffffffffff16021790555050506000601860008060050160009054906101000a900473ffffffffffffffffffffffffffffffffffffffff1673ffffffffffffffffffffffffffffffffffffffff1673ffffffffffffffffffffffffffffffffffffffff168152602001908152602001600020549050601360016013805490506148759190615bd7565b8154811061488657614885615c0b565b5b9060005260206000209060090201601382815481106148a8576148a7615c0b565b5b9060005260206000209060090201600082018160000190816148ca9190615ac0565b50600182018160010190816148df9190615ac0565b50600282018160020190816148f49190615ac0565b50600382018160030190816149099190615ac0565b506004820181600401908161491e9190615ac0565b506005820160009054906101000a900473ffffffffffffffffffffffffffffffffffffffff168160050160006101000a81548173ffffffffffffffffffffffffffffffffffffffff021916908373ffffffffffffffffffffffffffffffffffffffff1602179055506006820181600601908161499a9190615ac0565b50600782018160070190816149af9190615ac0565b506008820160009054906101000a900473ffffffffffffffffffffffffffffffffffffffff168160080160006101000a81548173ffffffffffffffffffffffffffffffffffffffff021916908373ffffffffffffffffffffffffffffffffffffffff160217905550905050806018600060138481548110614a3357614a32615c0b565b5b906000526020600020906009020160050160009054906101000a900473ffffffffffffffffffffffffffffffffffffffff1673ffffffffffffffffffffffffffffffffffffffff1673ffffffffffffffffffffffffffffffffffffffff168152602001908152602001600020819055506013805480614ab557614ab4615c3a565b5b600190038181906000526020600020906009020160008082016000614ada9190615103565b600182016000614aea9190615103565b600282016000614afa9190615103565b600382016000614b0a9190615103565b600482016000614b1a9190615103565b6005820160006101000a81549073ffffffffffffffffffffffffffffffffffffffff0219169055600682016000614b519190615103565b600782016000614b619190615103565b6008820160006101000a81549073ffffffffffffffffffffffffffffffffffffffff021916905550509055601860008060050160009054906101000a900473ffffffffffffffffffffffffffffffffffffffff1673ffffffffffffffffffffffffffffffffffffffff1673ffffffffffffffffffffffffffffffffffffffff16815260200190815260200160002060009055505b5050565b60606016805480602002602001604051908101604052809291908181526020016000905b828210156150fa578382906000526020600020906009020160405180610120016040529081600082018054614c51906157f1565b80601f0160208091040260200160405190810160405280929190818152602001828054614c7d906157f1565b8015614cca5780601f10614c9f57610100808354040283529160200191614cca565b820191906000526020600020905b815481529060010190602001808311614cad57829003601f168201915b50505050508152602001600182018054614ce3906157f1565b80601f0160208091040260200160405190810160405280929190818152602001828054614d0f906157f1565b8015614d5c5780601f10614d3157610100808354040283529160200191614d5c565b820191906000526020600020905b815481529060010190602001808311614d3f57829003601f168201915b50505050508152602001600282018054614d75906157f1565b80601f0160208091040260200160405190810160405280929190818152602001828054614da1906157f1565b8015614dee5780601f10614dc357610100808354040283529160200191614dee565b820191906000526020600020905b815481529060010190602001808311614dd157829003601f168201915b50505050508152602001600382018054614e07906157f1565b80601f0160208091040260200160405190810160405280929190818152602001828054614e33906157f1565b8015614e805780601f10614e5557610100808354040283529160200191614e80565b820191906000526020600020905b815481529060010190602001808311614e6357829003601f168201915b50505050508152602001600482018054614e99906157f1565b80601f0160208091040260200160405190810160405280929190818152602001828054614ec5906157f1565b8015614f125780601f10614ee757610100808354040283529160200191614f12565b820191906000526020600020905b815481529060010190602001808311614ef557829003601f168201915b505050505081526020016005820160009054906101000a900473ffffffffffffffffffffffffffffffffffffffff1673ffffffffffffffffffffffffffffffffffffffff1673ffffffffffffffffffffffffffffffffffffffff168152602001600682018054614f81906157f1565b80601f0160208091040260200160405190810160405280929190818152602001828054614fad906157f1565b8015614ffa5780601f10614fcf57610100808354040283529160200191614ffa565b820191906000526020600020905b815481529060010190602001808311614fdd57829003601f168201915b50505050508152602001600782018054615013906157f1565b80601f016020809104026020016040519081016040528092919081815260200182805461503f906157f1565b801561508c5780601f106150615761010080835404028352916020019161508c565b820191906000526020600020905b81548152906001019060200180831161506f57829003601f168201915b505050505081526020016008820160009054906101000a900473ffffffffffffffffffffffffffffffffffffffff1673ffffffffffffffffffffffffffffffffffffffff1673ffffffffffffffffffffffffffffffffffffffff168152505081526020019060010190614c1d565b50505050905090565b50805461510f906157f1565b6000825580601f106151215750615140565b601f01602090049060005260206000209081019061513f9190615143565b5b50565b5b8082111561515c576000816000905550600101615144565b5090565b600081519050919050565b600082825260208201905092915050565b6000819050602082019050919050565b600081519050919050565b600082825260208201905092915050565b60005b838110156151c65780820151818401526020810190506151ab565b60008484015250505050565b6000601f19601f8301169050919050565b60006151ee8261518c565b6151f88185615197565b93506152088185602086016151a8565b615211816151d2565b840191505092915050565b600073ffffffffffffffffffffffffffffffffffffffff82169050919050565b60006152478261521c565b9050919050565b6152578161523c565b82525050565b600061012083016000830151848203600086015261527b82826151e3565b9150506020830151848203602086015261529582826151e3565b915050604083015184820360408601526152af82826151e3565b915050606083015184820360608601526152c982826151e3565b915050608083015184820360808601526152e382826151e3565b91505060a08301516152f860a086018261524e565b5060c083015184820360c086015261531082826151e3565b91505060e083015184820360e086015261532a82826151e3565b91505061010083015161534161010086018261524e565b508091505092915050565b6000615358838361525d565b905092915050565b6000602082019050919050565b600061537882615160565b615382818561516b565b9350836020820285016153948561517c565b8060005b858110156153d057848403895281516153b1858261534c565b94506153bc83615360565b925060208a01995050600181019050615398565b50829750879550505050505092915050565b600060208201905081810360008301526153fc818461536d565b905092915050565b6000604051905090565b600080fd5b600080fd5b600080fd5b600080fd5b7f4e487b7100000000000000000000000000000000000000000000000000000000600052604160045260246000fd5b61545a826151d2565b810181811067ffffffffffffffff8211171561547957615478615422565b5b80604052505050565b600061548c615404565b90506154988282615451565b919050565b600067ffffffffffffffff8211156154b8576154b7615422565b5b6154c1826151d2565b9050602081019050919050565b82818337600083830152505050565b60006154f06154eb8461549d565b615482565b90508281526020810184848401111561550c5761550b61541d565b5b6155178482856154ce565b509392505050565b600082601f83011261553457615533615418565b5b81356155448482602086016154dd565b91505092915050565b6155568161523c565b811461556157600080fd5b50565b6000813590506155738161554d565b92915050565b60008060008060008060c087890312156155965761559561540e565b5b600087013567ffffffffffffffff8111156155b4576155b3615413565b5b6155c089828a0161551f565b965050602087013567ffffffffffffffff8111156155e1576155e0615413565b5b6155ed89828a0161551f565b955050604087013567ffffffffffffffff81111561560e5761560d615413565b5b61561a89828a0161551f565b945050606087013567ffffffffffffffff81111561563b5761563a615413565b5b61564789828a0161551f565b935050608087013567ffffffffffffffff81111561566857615667615413565b5b61567489828a0161551f565b92505060a061568589828a01615564565b9150509295509295509295565b60008115159050919050565b6156a781615692565b81146156b257600080fd5b50565b6000813590506156c48161569e565b92915050565b6000602082840312156156e0576156df61540e565b5b60006156ee848285016156b5565b91505092915050565b6000806000606084860312156157105761570f61540e565b5b600061571e868287016156b5565b935050602084013567ffffffffffffffff81111561573f5761573e615413565b5b61574b8682870161551f565b925050604061575c86828701615564565b9150509250925092565b6000806040838503121561577d5761577c61540e565b5b600061578b858286016156b5565b925050602083013567ffffffffffffffff8111156157ac576157ab615413565b5b6157b88582860161551f565b9150509250929050565b7f4e487b7100000000000000000000000000000000000000000000000000000000600052602260045260246000fd5b6000600282049050600182168061580957607f821691505b60208210810361581c5761581b6157c2565b5b50919050565b60008190508160005260206000209050919050565b60006020601f8301049050919050565b600082821b905092915050565b6000600883026158847fffffffffffffffffffffffffffffffffffffffffffffffffffffffffffffffff82615847565b61588e8683615847565b95508019841693508086168417925050509392505050565b6000819050919050565b6000819050919050565b60006158d56158d06158cb846158a6565b6158b0565b6158a6565b9050919050565b6000819050919050565b6158ef836158ba565b6159036158fb826158dc565b848454615854565b825550505050565b600090565b61591861590b565b6159238184846158e6565b505050565b5b818110156159475761593c600082615910565b600181019050615929565b5050565b601f82111561598c5761595d81615822565b61596684615837565b81016020851015615975578190505b61598961598185615837565b830182615928565b50505b505050565b600082821c905092915050565b60006159af60001984600802615991565b1980831691505092915050565b60006159c8838361599e565b9150826002028217905092915050565b6159e18261518c565b67ffffffffffffffff8111156159fa576159f9615422565b5b615a0482546157f1565b615a0f82828561594b565b600060209050601f831160018114615a425760008415615a30578287015190505b615a3a85826159bc565b865550615aa2565b601f198416615a5086615822565b60005b82811015615a7857848901518255600182019150602085019450602081019050615a53565b86831015615a955784890151615a91601f89168261599e565b8355505b6001600288020188555050505b505050505050565b600081549050615ab9816157f1565b9050919050565b818103615ace575050615ba6565b615ad782615aaa565b67ffffffffffffffff811115615af057615aef615422565b5b615afa82546157f1565b615b0582828561594b565b6000601f831160018114615b345760008415615b22578287015490505b615b2c85826159bc565b865550615b9f565b601f198416615b4287615822565b9650615b4d86615822565b60005b82811015615b7557848901548255600182019150600185019450602081019050615b50565b86831015615b925784890154615b8e601f89168261599e565b8355505b6001600288020188555050505b5050505050505b565b7f4e487b7100000000000000000000000000000000000000000000000000000000600052601160045260246000fd5b6000615be2826158a6565b9150615bed836158a6565b9250828203905081811115615c0557615c04615ba8565b5b92915050565b7f4e487b7100000000000000000000000000000000000000000000000000000000600052603260045260246000fd5b7f4e487b7100000000000000000000000000000000000000000000000000000000600052603160045260246000fdfea26469706673582212206bb8f154be5d17d27c2781e143b5ade741a49057ddcb4787bf89d2d1e180a8fe64736f6c63430008130033",
  "immutableReferences": {},
  "source": "// SPDX-License-Identifier: LGPL v3.0\npragma solidity ^0.8.7;\n\ncontract Main {\n\n// paper Structure \n    struct PaperStruct{\n        string name;\n        string email;\n        string abstractofpaper;\n        string papertitle;\n        string linkofpaper;\n        address authorAddress;\n        string reviewofreviewer;\n        string reviewofAE;\n        address reviewerAddress;\n    }\n\n// Paper instance to manage paper information\n    PaperStruct instanceofPaperStruct;\n\n// getting paper informaion\n    function getPaperInfo(string memory _name, string memory _email, string memory _abstractofpaper, string memory _papertitle, string memory _linkofpaper, address _authorAddress) public {\n        instanceofPaperStruct.name = _name;\n        instanceofPaperStruct.email = _email;\n        instanceofPaperStruct.abstractofpaper = _abstractofpaper;\n        instanceofPaperStruct.papertitle = _papertitle;\n        instanceofPaperStruct.linkofpaper = _linkofpaper;\n        instanceofPaperStruct.authorAddress = _authorAddress;\n    }\n\n// Manage EIC ----------------------------------------------------------------------------------------------------------------\n\n// Manage papers in to EIC Eintity\n    PaperStruct[] approvedByEIC;  \n    PaperStruct[] recievedByEIC; \n    PaperStruct[] recievedByAE; \n\n//  Maage indexes of the paper \n    uint256 EICIndex = 0;\n    mapping(address => uint256) indexFromEIC;\n    \n// Send the paper to the EIC\n    function sendToEIC() public {\n\n           recievedByEIC.push(instanceofPaperStruct);\n           indexFromEIC[instanceofPaperStruct.authorAddress] = recievedByEIC.length - 1;\n\n       \n    }\n    // Get paper to the EIC \n    function getRecievedByEIC() public view returns(PaperStruct[] memory) {\n       return recievedByEIC;\n    }\n\n    // Get EIC approval\n    function EICapproval(bool _EICapproval) public {\n        if (_EICapproval == true) {\n           \n            approvedByEIC.push(instanceofPaperStruct);\n            recievedByAE.push(instanceofPaperStruct);\n\n            uint256 index = indexFromEIC[instanceofPaperStruct.authorAddress];\n            recievedByEIC[index] = recievedByEIC[recievedByEIC.length - 1];\n            indexFromEIC[recievedByEIC[index].authorAddress] = index;\n            recievedByEIC.pop();\n            delete indexFromEIC[instanceofPaperStruct.authorAddress];\n        } else {\n            uint256 index = indexFromEIC[instanceofPaperStruct.authorAddress];\n            recievedByEIC[index] = recievedByEIC[recievedByEIC.length - 1];\n            indexFromEIC[recievedByEIC[index].authorAddress] = index;\n            recievedByEIC.pop();\n            delete indexFromEIC[instanceofPaperStruct.authorAddress];\n        }\n    }\n    // For Getting papers approved by EIC\n     function getApprovedByEIC() public view returns(PaperStruct[] memory)  {\n       return approvedByEIC;\n    }\n\n//  Manage AE -----------------------------------------------------------------------------------------------------------------------\n\n// Manage papers in to EIC Eintity\n\n    PaperStruct[] approvedByAE; \n    PaperStruct[] recievedByReviewer;  \n \n//  Maage indexes of the paper \n    uint256 AEIndex = 0;\n    mapping(address => uint256) indexFromAE;\n    \n    // For getting papers in the AE \n    function getRecievedByAE() public view returns(PaperStruct[] memory) {\n       return recievedByAE;\n    }\n\n    // for taking approval from the AE\n    function AEapproval(bool _AEapproval) public {\n        if (_AEapproval == true) {\n           \n            approvedByAE.push(instanceofPaperStruct);\n            recievedByReviewer.push(instanceofPaperStruct);\n\n            uint256 index = indexFromAE[instanceofPaperStruct.authorAddress];\n            recievedByAE[index] = recievedByAE[recievedByAE.length - 1];\n            indexFromAE[recievedByAE[index].authorAddress] = index;\n            recievedByAE.pop();\n            delete indexFromAE[instanceofPaperStruct.authorAddress];\n        } else {\n            uint256 index = indexFromAE[instanceofPaperStruct.authorAddress];\n            recievedByAE[index] = recievedByAE[recievedByAE.length - 1];\n            indexFromAE[recievedByAE[index].authorAddress] = index;\n            recievedByAE.pop();\n            delete indexFromAE[instanceofPaperStruct.authorAddress];\n        }\n    }\n    // For getting the papers which approved by AE\n     function getApprovedByAE() public view returns(PaperStruct[] memory)  {\n       return approvedByAE;\n    }\n\n    // Manage Reviewer --------------------------------------------------------------------------------------------------------------\n    // Manage papers and indexes in the reviewer's UI\n    PaperStruct[] reviewedByReviewer; \n    PaperStruct[] RreceivedByAE;\n\n    uint256 ReviewerIndex = 0;\n    mapping(address => uint256) indexFromReviewer;\n    \n    // For Getting papers to the reviewer\n    function getRecievedByReviewer() public view returns(PaperStruct[] memory) {\n       return recievedByReviewer;\n    }\n    // For getting reviewer approval\n    function Reviewerapproval(bool _Reviewerapproval, string memory _Review, address _reviewerAddress) public {\n        instanceofPaperStruct.reviewofreviewer = _Review;\n        instanceofPaperStruct.reviewerAddress = _reviewerAddress;\n        if (_Reviewerapproval == true) {\n           \n            reviewedByReviewer.push(instanceofPaperStruct);\n            RreceivedByAE.push(instanceofPaperStruct);\n\n            uint256 index = indexFromReviewer[instanceofPaperStruct.authorAddress];\n            recievedByReviewer[index] = recievedByReviewer[recievedByReviewer.length - 1];\n            indexFromReviewer[recievedByReviewer[index].authorAddress] = index;\n            recievedByReviewer.pop();\n            delete indexFromReviewer[instanceofPaperStruct.authorAddress];\n        }\n        \n    }\n    // For gettig papers which reviewed by reviewer\n     function getReviewedbyReviewer() public view returns(PaperStruct[] memory)  {\n       return reviewedByReviewer;\n    }\n\n\n    // Reviewed By AE ----------------------------------------------------------------------------------------------------------\n    \n    // Manage reviewed papers came from the reviewer to the AE\n    PaperStruct[] reviewedByAE; \n    uint256 RBAEindex = 0;\n    mapping(address => uint256) indexFromRBAE;\n\n// get Papers which are reviewed by reviewer to the AE \n    function RereceivedByAE() public view returns(PaperStruct[] memory) {\n        return RreceivedByAE;\n    }\n\n// get remarks from the AE \n    function ReviewedByAE(bool _AEReview, string memory _Review) public {\n      if(_AEReview == true) \n      { instanceofPaperStruct.reviewofAE = _Review;\n        reviewedByAE.push(instanceofPaperStruct);\n\n        uint256 index = indexFromRBAE[instanceofPaperStruct.authorAddress];\n        RreceivedByAE[index] = RreceivedByAE[RreceivedByAE.length - 1];\n        indexFromRBAE[RreceivedByAE[index].authorAddress] = index;\n        RreceivedByAE.pop();\n        delete indexFromRBAE[instanceofPaperStruct.authorAddress];\n        }\n    }\n// For getting papers which are reviewed by AE\n    function getReviewedByAE() public view returns(PaperStruct[] memory) {\n        return reviewedByAE;\n    }\n\n}",
  "sourcePath": "/Users/rushiksoni/Desktop/blockchain-based-decentralized-research-publishing-system/contracts/main.sol",
  "compiler": {
    "name": "solc",
    "version": "0.8.19+commit.7dd6d404.Emscripten.clang"
  },
  "schemaVersion": "3.4.14",
  "updatedAt": "2023-06-30T17:03:37.825Z",
  "networkType": "ethereum",
  "devdoc": {
    "kind": "dev",
    "methods": {},
    "version": 1
  },
  "userdoc": {
    "kind": "user",
    "methods": {},
    "version": 1
  }
}